{
  "contractName": "NFT_BaseURI",
  "abi": [
    {
      "inputs": [
        {
          "internalType": "string",
          "name": "name",
          "type": "string"
        },
        {
          "internalType": "string",
          "name": "ticker",
          "type": "string"
        },
        {
          "internalType": "string",
          "name": "baseUri",
          "type": "string"
        }
      ],
      "stateMutability": "nonpayable",
      "type": "constructor"
    },
    {
      "anonymous": false,
      "inputs": [
        {
          "indexed": true,
          "internalType": "address",
          "name": "owner",
          "type": "address"
        },
        {
          "indexed": true,
          "internalType": "address",
          "name": "approved",
          "type": "address"
        },
        {
          "indexed": true,
          "internalType": "uint256",
          "name": "tokenId",
          "type": "uint256"
        }
      ],
      "name": "Approval",
      "type": "event"
    },
    {
      "anonymous": false,
      "inputs": [
        {
          "indexed": true,
          "internalType": "address",
          "name": "owner",
          "type": "address"
        },
        {
          "indexed": true,
          "internalType": "address",
          "name": "operator",
          "type": "address"
        },
        {
          "indexed": false,
          "internalType": "bool",
          "name": "approved",
          "type": "bool"
        }
      ],
      "name": "ApprovalForAll",
      "type": "event"
    },
    {
      "anonymous": false,
      "inputs": [
        {
          "indexed": true,
          "internalType": "address",
          "name": "previousOwner",
          "type": "address"
        },
        {
          "indexed": true,
          "internalType": "address",
          "name": "newOwner",
          "type": "address"
        }
      ],
      "name": "OwnershipTransferred",
      "type": "event"
    },
    {
      "anonymous": false,
      "inputs": [
        {
          "indexed": true,
          "internalType": "address",
          "name": "from",
          "type": "address"
        },
        {
          "indexed": true,
          "internalType": "address",
          "name": "to",
          "type": "address"
        },
        {
          "indexed": true,
          "internalType": "uint256",
          "name": "tokenId",
          "type": "uint256"
        }
      ],
      "name": "Transfer",
      "type": "event"
    },
    {
      "inputs": [
        {
          "internalType": "address",
          "name": "to",
          "type": "address"
        },
        {
          "internalType": "uint256",
          "name": "tokenId",
          "type": "uint256"
        }
      ],
      "name": "approve",
      "outputs": [],
      "stateMutability": "nonpayable",
      "type": "function"
    },
    {
      "inputs": [
        {
          "internalType": "address",
          "name": "owner",
          "type": "address"
        }
      ],
      "name": "balanceOf",
      "outputs": [
        {
          "internalType": "uint256",
          "name": "",
          "type": "uint256"
        }
      ],
      "stateMutability": "view",
      "type": "function",
      "constant": true
    },
    {
      "inputs": [
        {
          "internalType": "uint256",
          "name": "tokenId",
          "type": "uint256"
        }
      ],
      "name": "getApproved",
      "outputs": [
        {
          "internalType": "address",
          "name": "",
          "type": "address"
        }
      ],
      "stateMutability": "view",
      "type": "function",
      "constant": true
    },
    {
      "inputs": [
        {
          "internalType": "address",
          "name": "owner",
          "type": "address"
        },
        {
          "internalType": "address",
          "name": "operator",
          "type": "address"
        }
      ],
      "name": "isApprovedForAll",
      "outputs": [
        {
          "internalType": "bool",
          "name": "",
          "type": "bool"
        }
      ],
      "stateMutability": "view",
      "type": "function",
      "constant": true
    },
    {
      "inputs": [],
      "name": "name",
      "outputs": [
        {
          "internalType": "string",
          "name": "",
          "type": "string"
        }
      ],
      "stateMutability": "view",
      "type": "function",
      "constant": true
    },
    {
      "inputs": [],
      "name": "owner",
      "outputs": [
        {
          "internalType": "address",
          "name": "",
          "type": "address"
        }
      ],
      "stateMutability": "view",
      "type": "function",
      "constant": true
    },
    {
      "inputs": [
        {
          "internalType": "uint256",
          "name": "tokenId",
          "type": "uint256"
        }
      ],
      "name": "ownerOf",
      "outputs": [
        {
          "internalType": "address",
          "name": "",
          "type": "address"
        }
      ],
      "stateMutability": "view",
      "type": "function",
      "constant": true
    },
    {
      "inputs": [],
      "name": "renounceOwnership",
      "outputs": [],
      "stateMutability": "nonpayable",
      "type": "function"
    },
    {
      "inputs": [
        {
          "internalType": "address",
          "name": "from",
          "type": "address"
        },
        {
          "internalType": "address",
          "name": "to",
          "type": "address"
        },
        {
          "internalType": "uint256",
          "name": "tokenId",
          "type": "uint256"
        }
      ],
      "name": "safeTransferFrom",
      "outputs": [],
      "stateMutability": "nonpayable",
      "type": "function"
    },
    {
      "inputs": [
        {
          "internalType": "address",
          "name": "from",
          "type": "address"
        },
        {
          "internalType": "address",
          "name": "to",
          "type": "address"
        },
        {
          "internalType": "uint256",
          "name": "tokenId",
          "type": "uint256"
        },
        {
          "internalType": "bytes",
          "name": "_data",
          "type": "bytes"
        }
      ],
      "name": "safeTransferFrom",
      "outputs": [],
      "stateMutability": "nonpayable",
      "type": "function"
    },
    {
      "inputs": [
        {
          "internalType": "address",
          "name": "operator",
          "type": "address"
        },
        {
          "internalType": "bool",
          "name": "approved",
          "type": "bool"
        }
      ],
      "name": "setApprovalForAll",
      "outputs": [],
      "stateMutability": "nonpayable",
      "type": "function"
    },
    {
      "inputs": [
        {
          "internalType": "bytes4",
          "name": "interfaceId",
          "type": "bytes4"
        }
      ],
      "name": "supportsInterface",
      "outputs": [
        {
          "internalType": "bool",
          "name": "",
          "type": "bool"
        }
      ],
      "stateMutability": "view",
      "type": "function",
      "constant": true
    },
    {
      "inputs": [],
      "name": "symbol",
      "outputs": [
        {
          "internalType": "string",
          "name": "",
          "type": "string"
        }
      ],
      "stateMutability": "view",
      "type": "function",
      "constant": true
    },
    {
      "inputs": [
        {
          "internalType": "uint256",
          "name": "tokenId",
          "type": "uint256"
        }
      ],
      "name": "tokenURI",
      "outputs": [
        {
          "internalType": "string",
          "name": "",
          "type": "string"
        }
      ],
      "stateMutability": "view",
      "type": "function",
      "constant": true
    },
    {
      "inputs": [
        {
          "internalType": "address",
          "name": "from",
          "type": "address"
        },
        {
          "internalType": "address",
          "name": "to",
          "type": "address"
        },
        {
          "internalType": "uint256",
          "name": "tokenId",
          "type": "uint256"
        }
      ],
      "name": "transferFrom",
      "outputs": [],
      "stateMutability": "nonpayable",
      "type": "function"
    },
    {
      "inputs": [
        {
          "internalType": "address",
          "name": "newOwner",
          "type": "address"
        }
      ],
      "name": "transferOwnership",
      "outputs": [],
      "stateMutability": "nonpayable",
      "type": "function"
    },
    {
      "inputs": [
        {
          "internalType": "address",
          "name": "to",
          "type": "address"
        }
      ],
      "name": "safeMint",
      "outputs": [],
      "stateMutability": "nonpayable",
      "type": "function"
    },
    {
      "inputs": [
        {
          "internalType": "address",
          "name": "to",
          "type": "address"
        },
        {
          "internalType": "string",
          "name": "uri",
          "type": "string"
        }
      ],
      "name": "safeMint",
      "outputs": [],
      "stateMutability": "nonpayable",
      "type": "function"
    },
    {
      "inputs": [],
      "name": "counter",
      "outputs": [
        {
          "internalType": "uint256",
          "name": "",
          "type": "uint256"
        }
      ],
      "stateMutability": "view",
      "type": "function",
      "constant": true
    }
  ],
  "bytecode": "0x60806040523480156200001157600080fd5b50604051620036e8380380620036e88339818101604052810190620000379190620003de565b828281600090805190602001906200005192919062000191565b5080600190805190602001906200006a92919062000191565b5050506200008d62000081620000a760201b60201c565b620000af60201b60201c565b6200009e816200017560201b60201c565b505050620004fc565b600033905090565b6000600760009054906101000a900473ffffffffffffffffffffffffffffffffffffffff16905081600760006101000a81548173ffffffffffffffffffffffffffffffffffffffff021916908373ffffffffffffffffffffffffffffffffffffffff1602179055508173ffffffffffffffffffffffffffffffffffffffff168173ffffffffffffffffffffffffffffffffffffffff167f8be0079c531659141344cd1fd0a4f28419497f9722a3daafe3b4186f6b6457e060405160405180910390a35050565b80600990805190602001906200018d92919062000191565b5050565b8280546200019f90620004c6565b90600052602060002090601f016020900481019282620001c357600085556200020f565b82601f10620001de57805160ff19168380011785556200020f565b828001600101855582156200020f579182015b828111156200020e578251825591602001919060010190620001f1565b5b5090506200021e919062000222565b5090565b5b808211156200023d57600081600090555060010162000223565b5090565b6000604051905090565b600080fd5b600080fd5b600080fd5b600080fd5b6000601f19601f8301169050919050565b7f4e487b7100000000000000000000000000000000000000000000000000000000600052604160045260246000fd5b620002aa826200025f565b810181811067ffffffffffffffff82111715620002cc57620002cb62000270565b5b80604052505050565b6000620002e162000241565b9050620002ef82826200029f565b919050565b600067ffffffffffffffff82111562000312576200031162000270565b5b6200031d826200025f565b9050602081019050919050565b60005b838110156200034a5780820151818401526020810190506200032d565b838111156200035a576000848401525b50505050565b6000620003776200037184620002f4565b620002d5565b9050828152602081018484840111156200039657620003956200025a565b5b620003a38482856200032a565b509392505050565b600082601f830112620003c357620003c262000255565b5b8151620003d584826020860162000360565b91505092915050565b600080600060608486031215620003fa57620003f96200024b565b5b600084015167ffffffffffffffff8111156200041b576200041a62000250565b5b6200042986828701620003ab565b935050602084015167ffffffffffffffff8111156200044d576200044c62000250565b5b6200045b86828701620003ab565b925050604084015167ffffffffffffffff8111156200047f576200047e62000250565b5b6200048d86828701620003ab565b9150509250925092565b7f4e487b7100000000000000000000000000000000000000000000000000000000600052602260045260246000fd5b60006002820490506001821680620004df57607f821691505b60208210811415620004f657620004f562000497565b5b50919050565b6131dc806200050c6000396000f3fe608060405234801561001057600080fd5b50600436106101215760003560e01c806370a08231116100ad578063b88d4fde11610071578063b88d4fde146102f4578063c87b56dd14610310578063d204c45e14610340578063e985e9c51461035c578063f2fde38b1461038c57610121565b806370a0823114610262578063715018a6146102925780638da5cb5b1461029c57806395d89b41146102ba578063a22cb465146102d857610121565b806323b872dd116100f457806323b872dd146101c057806340d097c3146101dc57806342842e0e146101f857806361bc221a146102145780636352211e1461023257610121565b806301ffc9a71461012657806306fdde0314610156578063081812fc14610174578063095ea7b3146101a4575b600080fd5b610140600480360381019061013b9190611e40565b6103a8565b60405161014d9190611e88565b60405180910390f35b61015e61048a565b60405161016b9190611f3c565b60405180910390f35b61018e60048036038101906101899190611f94565b61051c565b60405161019b9190612002565b60405180910390f35b6101be60048036038101906101b99190612049565b6105a1565b005b6101da60048036038101906101d59190612089565b6106b9565b005b6101f660048036038101906101f191906120dc565b610719565b005b610212600480360381019061020d9190612089565b6107b5565b005b61021c6107d5565b6040516102299190612118565b60405180910390f35b61024c60048036038101906102479190611f94565b6107e6565b6040516102599190612002565b60405180910390f35b61027c600480360381019061027791906120dc565b610898565b6040516102899190612118565b60405180910390f35b61029a610950565b005b6102a46109d8565b6040516102b19190612002565b60405180910390f35b6102c2610a02565b6040516102cf9190611f3c565b60405180910390f35b6102f260048036038101906102ed919061215f565b610a94565b005b61030e600480360381019061030991906122d4565b610aaa565b005b61032a60048036038101906103259190611f94565b610b0c565b6040516103379190611f3c565b60405180910390f35b61035a600480360381019061035591906123f8565b610c5e565b005b61037660048036038101906103719190612454565b610d00565b6040516103839190611e88565b60405180910390f35b6103a660048036038101906103a191906120dc565b610d94565b005b60007f80ac58cd000000000000000000000000000000000000000000000000000000007bffffffffffffffffffffffffffffffffffffffffffffffffffffffff1916827bffffffffffffffffffffffffffffffffffffffffffffffffffffffff1916148061047357507f5b5e139f000000000000000000000000000000000000000000000000000000007bffffffffffffffffffffffffffffffffffffffffffffffffffffffff1916827bffffffffffffffffffffffffffffffffffffffffffffffffffffffff1916145b80610483575061048282610e8c565b5b9050919050565b606060008054610499906124c3565b80601f01602080910402602001604051908101604052809291908181526020018280546104c5906124c3565b80156105125780601f106104e757610100808354040283529160200191610512565b820191906000526020600020905b8154815290600101906020018083116104f557829003601f168201915b5050505050905090565b600061052782610ef6565b610566576040517f08c379a000000000000000000000000000000000000000000000000000000000815260040161055d90612567565b60405180910390fd5b6004600083815260200190815260200160002060009054906101000a900473ffffffffffffffffffffffffffffffffffffffff169050919050565b60006105ac826107e6565b90508073ffffffffffffffffffffffffffffffffffffffff168373ffffffffffffffffffffffffffffffffffffffff16141561061d576040517f08c379a0000000000000000000000000000000000000000000000000000000008152600401610614906125f9565b60405180910390fd5b8073ffffffffffffffffffffffffffffffffffffffff1661063c610f62565b73ffffffffffffffffffffffffffffffffffffffff16148061066b575061066a81610665610f62565b610d00565b5b6106aa576040517f08c379a00000000000000000000000000000000000000000000000000000000081526004016106a19061268b565b60405180910390fd5b6106b48383610f6a565b505050565b6106ca6106c4610f62565b82611023565b610709576040517f08c379a00000000000000000000000000000000000000000000000000000000081526004016107009061271d565b60405180910390fd5b610714838383611101565b505050565b610721610f62565b73ffffffffffffffffffffffffffffffffffffffff1661073f6109d8565b73ffffffffffffffffffffffffffffffffffffffff1614610795576040517f08c379a000000000000000000000000000000000000000000000000000000000815260040161078c90612789565b60405180910390fd5b6107a8816107a36008611368565b611376565b6107b26008611394565b50565b6107d083838360405180602001604052806000815250610aaa565b505050565b60006107e16008611368565b905090565b6000806002600084815260200190815260200160002060009054906101000a900473ffffffffffffffffffffffffffffffffffffffff169050600073ffffffffffffffffffffffffffffffffffffffff168173ffffffffffffffffffffffffffffffffffffffff16141561088f576040517f08c379a00000000000000000000000000000000000000000000000000000000081526004016108869061281b565b60405180910390fd5b80915050919050565b60008073ffffffffffffffffffffffffffffffffffffffff168273ffffffffffffffffffffffffffffffffffffffff161415610909576040517f08c379a0000000000000000000000000000000000000000000000000000000008152600401610900906128ad565b60405180910390fd5b600360008373ffffffffffffffffffffffffffffffffffffffff1673ffffffffffffffffffffffffffffffffffffffff168152602001908152602001600020549050919050565b610958610f62565b73ffffffffffffffffffffffffffffffffffffffff166109766109d8565b73ffffffffffffffffffffffffffffffffffffffff16146109cc576040517f08c379a00000000000000000000000000000000000000000000000000000000081526004016109c390612789565b60405180910390fd5b6109d660006113aa565b565b6000600760009054906101000a900473ffffffffffffffffffffffffffffffffffffffff16905090565b606060018054610a11906124c3565b80601f0160208091040260200160405190810160405280929190818152602001828054610a3d906124c3565b8015610a8a5780601f10610a5f57610100808354040283529160200191610a8a565b820191906000526020600020905b815481529060010190602001808311610a6d57829003601f168201915b5050505050905090565b610aa6610a9f610f62565b8383611470565b5050565b610abb610ab5610f62565b83611023565b610afa576040517f08c379a0000000000000000000000000000000000000000000000000000000008152600401610af19061271d565b60405180910390fd5b610b06848484846115dd565b50505050565b6060610b1782610ef6565b610b56576040517f08c379a0000000000000000000000000000000000000000000000000000000008152600401610b4d9061293f565b60405180910390fd5b6000600660008481526020019081526020016000208054610b76906124c3565b80601f0160208091040260200160405190810160405280929190818152602001828054610ba2906124c3565b8015610bef5780601f10610bc457610100808354040283529160200191610bef565b820191906000526020600020905b815481529060010190602001808311610bd257829003601f168201915b505050505090506000610c00611639565b9050600081511415610c16578192505050610c59565b600082511115610c4b578082604051602001610c3392919061299b565b60405160208183030381529060405292505050610c59565b610c54846116cb565b925050505b919050565b610c66610f62565b73ffffffffffffffffffffffffffffffffffffffff16610c846109d8565b73ffffffffffffffffffffffffffffffffffffffff1614610cda576040517f08c379a0000000000000000000000000000000000000000000000000000000008152600401610cd190612789565b60405180910390fd5b6000610ce66008611368565b9050610cf183610719565b610cfb8183611772565b505050565b6000600560008473ffffffffffffffffffffffffffffffffffffffff1673ffffffffffffffffffffffffffffffffffffffff16815260200190815260200160002060008373ffffffffffffffffffffffffffffffffffffffff1673ffffffffffffffffffffffffffffffffffffffff16815260200190815260200160002060009054906101000a900460ff16905092915050565b610d9c610f62565b73ffffffffffffffffffffffffffffffffffffffff16610dba6109d8565b73ffffffffffffffffffffffffffffffffffffffff1614610e10576040517f08c379a0000000000000000000000000000000000000000000000000000000008152600401610e0790612789565b60405180910390fd5b600073ffffffffffffffffffffffffffffffffffffffff168173ffffffffffffffffffffffffffffffffffffffff161415610e80576040517f08c379a0000000000000000000000000000000000000000000000000000000008152600401610e7790612a31565b60405180910390fd5b610e89816113aa565b50565b60007f01ffc9a7000000000000000000000000000000000000000000000000000000007bffffffffffffffffffffffffffffffffffffffffffffffffffffffff1916827bffffffffffffffffffffffffffffffffffffffffffffffffffffffff1916149050919050565b60008073ffffffffffffffffffffffffffffffffffffffff166002600084815260200190815260200160002060009054906101000a900473ffffffffffffffffffffffffffffffffffffffff1673ffffffffffffffffffffffffffffffffffffffff1614159050919050565b600033905090565b816004600083815260200190815260200160002060006101000a81548173ffffffffffffffffffffffffffffffffffffffff021916908373ffffffffffffffffffffffffffffffffffffffff160217905550808273ffffffffffffffffffffffffffffffffffffffff16610fdd836107e6565b73ffffffffffffffffffffffffffffffffffffffff167f8c5be1e5ebec7d5bd14f71427d1e84f3dd0314c0f7b2291e5b200ac8c7c3b92560405160405180910390a45050565b600061102e82610ef6565b61106d576040517f08c379a000000000000000000000000000000000000000000000000000000000815260040161106490612ac3565b60405180910390fd5b6000611078836107e6565b90508073ffffffffffffffffffffffffffffffffffffffff168473ffffffffffffffffffffffffffffffffffffffff1614806110e757508373ffffffffffffffffffffffffffffffffffffffff166110cf8461051c565b73ffffffffffffffffffffffffffffffffffffffff16145b806110f857506110f78185610d00565b5b91505092915050565b8273ffffffffffffffffffffffffffffffffffffffff16611121826107e6565b73ffffffffffffffffffffffffffffffffffffffff1614611177576040517f08c379a000000000000000000000000000000000000000000000000000000000815260040161116e90612b55565b60405180910390fd5b600073ffffffffffffffffffffffffffffffffffffffff168273ffffffffffffffffffffffffffffffffffffffff1614156111e7576040517f08c379a00000000000000000000000000000000000000000000000000000000081526004016111de90612be7565b60405180910390fd5b6111f28383836117e6565b6111fd600082610f6a565b6001600360008573ffffffffffffffffffffffffffffffffffffffff1673ffffffffffffffffffffffffffffffffffffffff168152602001908152602001600020600082825461124d9190612c36565b925050819055506001600360008473ffffffffffffffffffffffffffffffffffffffff1673ffffffffffffffffffffffffffffffffffffffff16815260200190815260200160002060008282546112a49190612c6a565b92505081905550816002600083815260200190815260200160002060006101000a81548173ffffffffffffffffffffffffffffffffffffffff021916908373ffffffffffffffffffffffffffffffffffffffff160217905550808273ffffffffffffffffffffffffffffffffffffffff168473ffffffffffffffffffffffffffffffffffffffff167fddf252ad1be2c89b69c2b068fc378daa952ba7f163c4a11628f55a4df523b3ef60405160405180910390a46113638383836117eb565b505050565b600081600001549050919050565b6113908282604051806020016040528060008152506117f0565b5050565b6001816000016000828254019250508190555050565b6000600760009054906101000a900473ffffffffffffffffffffffffffffffffffffffff16905081600760006101000a81548173ffffffffffffffffffffffffffffffffffffffff021916908373ffffffffffffffffffffffffffffffffffffffff1602179055508173ffffffffffffffffffffffffffffffffffffffff168173ffffffffffffffffffffffffffffffffffffffff167f8be0079c531659141344cd1fd0a4f28419497f9722a3daafe3b4186f6b6457e060405160405180910390a35050565b8173ffffffffffffffffffffffffffffffffffffffff168373ffffffffffffffffffffffffffffffffffffffff1614156114df576040517f08c379a00000000000000000000000000000000000000000000000000000000081526004016114d690612d0c565b60405180910390fd5b80600560008573ffffffffffffffffffffffffffffffffffffffff1673ffffffffffffffffffffffffffffffffffffffff16815260200190815260200160002060008473ffffffffffffffffffffffffffffffffffffffff1673ffffffffffffffffffffffffffffffffffffffff16815260200190815260200160002060006101000a81548160ff0219169083151502179055508173ffffffffffffffffffffffffffffffffffffffff168373ffffffffffffffffffffffffffffffffffffffff167f17307eab39ab6107e8899845ad3d59bd9653f200f220920489ca2b5937696c31836040516115d09190611e88565b60405180910390a3505050565b6115e8848484611101565b6115f48484848461184b565b611633576040517f08c379a000000000000000000000000000000000000000000000000000000000815260040161162a90612d9e565b60405180910390fd5b50505050565b606060098054611648906124c3565b80601f0160208091040260200160405190810160405280929190818152602001828054611674906124c3565b80156116c15780601f10611696576101008083540402835291602001916116c1565b820191906000526020600020905b8154815290600101906020018083116116a457829003601f168201915b5050505050905090565b60606116d682610ef6565b611715576040517f08c379a000000000000000000000000000000000000000000000000000000000815260040161170c90612e30565b60405180910390fd5b600061171f611639565b9050600081511161173f576040518060200160405280600081525061176a565b80611749846119d3565b60405160200161175a92919061299b565b6040516020818303038152906040525b915050919050565b61177b82610ef6565b6117ba576040517f08c379a00000000000000000000000000000000000000000000000000000000081526004016117b190612ec2565b60405180910390fd5b806006600084815260200190815260200160002090805190602001906117e1929190611d31565b505050565b505050565b505050565b6117fa8383611b34565b611807600084848461184b565b611846576040517f08c379a000000000000000000000000000000000000000000000000000000000815260040161183d90612d9e565b60405180910390fd5b505050565b600061186c8473ffffffffffffffffffffffffffffffffffffffff16611d0e565b156119c6578373ffffffffffffffffffffffffffffffffffffffff1663150b7a02611895610f62565b8786866040518563ffffffff1660e01b81526004016118b79493929190612f37565b6020604051808303816000875af19250505080156118f357506040513d601f19601f820116820180604052508101906118f09190612f98565b60015b611976573d8060008114611923576040519150601f19603f3d011682016040523d82523d6000602084013e611928565b606091505b5060008151141561196e576040517f08c379a000000000000000000000000000000000000000000000000000000000815260040161196590612d9e565b60405180910390fd5b805181602001fd5b63150b7a0260e01b7bffffffffffffffffffffffffffffffffffffffffffffffffffffffff1916817bffffffffffffffffffffffffffffffffffffffffffffffffffffffff1916149150506119cb565b600190505b949350505050565b60606000821415611a1b576040518060400160405280600181526020017f30000000000000000000000000000000000000000000000000000000000000008152509050611b2f565b600082905060005b60008214611a4d578080611a3690612fc5565b915050600a82611a46919061303d565b9150611a23565b60008167ffffffffffffffff811115611a6957611a686121a9565b5b6040519080825280601f01601f191660200182016040528015611a9b5781602001600182028036833780820191505090505b5090505b60008514611b2857600182611ab49190612c36565b9150600a85611ac3919061306e565b6030611acf9190612c6a565b60f81b818381518110611ae557611ae461309f565b5b60200101907effffffffffffffffffffffffffffffffffffffffffffffffffffffffffffff1916908160001a905350600a85611b21919061303d565b9450611a9f565b8093505050505b919050565b600073ffffffffffffffffffffffffffffffffffffffff168273ffffffffffffffffffffffffffffffffffffffff161415611ba4576040517f08c379a0000000000000000000000000000000000000000000000000000000008152600401611b9b9061311a565b60405180910390fd5b611bad81610ef6565b15611bed576040517f08c379a0000000000000000000000000000000000000000000000000000000008152600401611be490613186565b60405180910390fd5b611bf9600083836117e6565b6001600360008473ffffffffffffffffffffffffffffffffffffffff1673ffffffffffffffffffffffffffffffffffffffff1681526020019081526020016000206000828254611c499190612c6a565b92505081905550816002600083815260200190815260200160002060006101000a81548173ffffffffffffffffffffffffffffffffffffffff021916908373ffffffffffffffffffffffffffffffffffffffff160217905550808273ffffffffffffffffffffffffffffffffffffffff16600073ffffffffffffffffffffffffffffffffffffffff167fddf252ad1be2c89b69c2b068fc378daa952ba7f163c4a11628f55a4df523b3ef60405160405180910390a4611d0a600083836117eb565b5050565b6000808273ffffffffffffffffffffffffffffffffffffffff163b119050919050565b828054611d3d906124c3565b90600052602060002090601f016020900481019282611d5f5760008555611da6565b82601f10611d7857805160ff1916838001178555611da6565b82800160010185558215611da6579182015b82811115611da5578251825591602001919060010190611d8a565b5b509050611db39190611db7565b5090565b5b80821115611dd0576000816000905550600101611db8565b5090565b6000604051905090565b600080fd5b600080fd5b60007fffffffff0000000000000000000000000000000000000000000000000000000082169050919050565b611e1d81611de8565b8114611e2857600080fd5b50565b600081359050611e3a81611e14565b92915050565b600060208284031215611e5657611e55611dde565b5b6000611e6484828501611e2b565b91505092915050565b60008115159050919050565b611e8281611e6d565b82525050565b6000602082019050611e9d6000830184611e79565b92915050565b600081519050919050565b600082825260208201905092915050565b60005b83811015611edd578082015181840152602081019050611ec2565b83811115611eec576000848401525b50505050565b6000601f19601f8301169050919050565b6000611f0e82611ea3565b611f188185611eae565b9350611f28818560208601611ebf565b611f3181611ef2565b840191505092915050565b60006020820190508181036000830152611f568184611f03565b905092915050565b6000819050919050565b611f7181611f5e565b8114611f7c57600080fd5b50565b600081359050611f8e81611f68565b92915050565b600060208284031215611faa57611fa9611dde565b5b6000611fb884828501611f7f565b91505092915050565b600073ffffffffffffffffffffffffffffffffffffffff82169050919050565b6000611fec82611fc1565b9050919050565b611ffc81611fe1565b82525050565b60006020820190506120176000830184611ff3565b92915050565b61202681611fe1565b811461203157600080fd5b50565b6000813590506120438161201d565b92915050565b600080604083850312156120605761205f611dde565b5b600061206e85828601612034565b925050602061207f85828601611f7f565b9150509250929050565b6000806000606084860312156120a2576120a1611dde565b5b60006120b086828701612034565b93505060206120c186828701612034565b92505060406120d286828701611f7f565b9150509250925092565b6000602082840312156120f2576120f1611dde565b5b600061210084828501612034565b91505092915050565b61211281611f5e565b82525050565b600060208201905061212d6000830184612109565b92915050565b61213c81611e6d565b811461214757600080fd5b50565b60008135905061215981612133565b92915050565b6000806040838503121561217657612175611dde565b5b600061218485828601612034565b92505060206121958582860161214a565b9150509250929050565b600080fd5b600080fd5b7f4e487b7100000000000000000000000000000000000000000000000000000000600052604160045260246000fd5b6121e182611ef2565b810181811067ffffffffffffffff82111715612200576121ff6121a9565b5b80604052505050565b6000612213611dd4565b905061221f82826121d8565b919050565b600067ffffffffffffffff82111561223f5761223e6121a9565b5b61224882611ef2565b9050602081019050919050565b82818337600083830152505050565b600061227761227284612224565b612209565b905082815260208101848484011115612293576122926121a4565b5b61229e848285612255565b509392505050565b600082601f8301126122bb576122ba61219f565b5b81356122cb848260208601612264565b91505092915050565b600080600080608085870312156122ee576122ed611dde565b5b60006122fc87828801612034565b945050602061230d87828801612034565b935050604061231e87828801611f7f565b925050606085013567ffffffffffffffff81111561233f5761233e611de3565b5b61234b878288016122a6565b91505092959194509250565b600067ffffffffffffffff821115612372576123716121a9565b5b61237b82611ef2565b9050602081019050919050565b600061239b61239684612357565b612209565b9050828152602081018484840111156123b7576123b66121a4565b5b6123c2848285612255565b509392505050565b600082601f8301126123df576123de61219f565b5b81356123ef848260208601612388565b91505092915050565b6000806040838503121561240f5761240e611dde565b5b600061241d85828601612034565b925050602083013567ffffffffffffffff81111561243e5761243d611de3565b5b61244a858286016123ca565b9150509250929050565b6000806040838503121561246b5761246a611dde565b5b600061247985828601612034565b925050602061248a85828601612034565b9150509250929050565b7f4e487b7100000000000000000000000000000000000000000000000000000000600052602260045260246000fd5b600060028204905060018216806124db57607f821691505b602082108114156124ef576124ee612494565b5b50919050565b7f4552433732313a20617070726f76656420717565727920666f72206e6f6e657860008201527f697374656e7420746f6b656e0000000000000000000000000000000000000000602082015250565b6000612551602c83611eae565b915061255c826124f5565b604082019050919050565b6000602082019050818103600083015261258081612544565b9050919050565b7f4552433732313a20617070726f76616c20746f2063757272656e74206f776e6560008201527f7200000000000000000000000000000000000000000000000000000000000000602082015250565b60006125e3602183611eae565b91506125ee82612587565b604082019050919050565b60006020820190508181036000830152612612816125d6565b9050919050565b7f4552433732313a20617070726f76652063616c6c6572206973206e6f74206f7760008201527f6e6572206e6f7220617070726f76656420666f7220616c6c0000000000000000602082015250565b6000612675603883611eae565b915061268082612619565b604082019050919050565b600060208201905081810360008301526126a481612668565b9050919050565b7f4552433732313a207472616e736665722063616c6c6572206973206e6f74206f60008201527f776e6572206e6f7220617070726f766564000000000000000000000000000000602082015250565b6000612707603183611eae565b9150612712826126ab565b604082019050919050565b60006020820190508181036000830152612736816126fa565b9050919050565b7f4f776e61626c653a2063616c6c6572206973206e6f7420746865206f776e6572600082015250565b6000612773602083611eae565b915061277e8261273d565b602082019050919050565b600060208201905081810360008301526127a281612766565b9050919050565b7f4552433732313a206f776e657220717565727920666f72206e6f6e657869737460008201527f656e7420746f6b656e0000000000000000000000000000000000000000000000602082015250565b6000612805602983611eae565b9150612810826127a9565b604082019050919050565b60006020820190508181036000830152612834816127f8565b9050919050565b7f4552433732313a2062616c616e636520717565727920666f7220746865207a6560008201527f726f206164647265737300000000000000000000000000000000000000000000602082015250565b6000612897602a83611eae565b91506128a28261283b565b604082019050919050565b600060208201905081810360008301526128c68161288a565b9050919050565b7f45524337323155524953746f726167653a2055524920717565727920666f722060008201527f6e6f6e6578697374656e7420746f6b656e000000000000000000000000000000602082015250565b6000612929603183611eae565b9150612934826128cd565b604082019050919050565b600060208201905081810360008301526129588161291c565b9050919050565b600081905092915050565b600061297582611ea3565b61297f818561295f565b935061298f818560208601611ebf565b80840191505092915050565b60006129a7828561296a565b91506129b3828461296a565b91508190509392505050565b7f4f776e61626c653a206e6577206f776e657220697320746865207a65726f206160008201527f6464726573730000000000000000000000000000000000000000000000000000602082015250565b6000612a1b602683611eae565b9150612a26826129bf565b604082019050919050565b60006020820190508181036000830152612a4a81612a0e565b9050919050565b7f4552433732313a206f70657261746f7220717565727920666f72206e6f6e657860008201527f697374656e7420746f6b656e0000000000000000000000000000000000000000602082015250565b6000612aad602c83611eae565b9150612ab882612a51565b604082019050919050565b60006020820190508181036000830152612adc81612aa0565b9050919050565b7f4552433732313a207472616e736665722066726f6d20696e636f72726563742060008201527f6f776e6572000000000000000000000000000000000000000000000000000000602082015250565b6000612b3f602583611eae565b9150612b4a82612ae3565b604082019050919050565b60006020820190508181036000830152612b6e81612b32565b9050919050565b7f4552433732313a207472616e7366657220746f20746865207a65726f2061646460008201527f7265737300000000000000000000000000000000000000000000000000000000602082015250565b6000612bd1602483611eae565b9150612bdc82612b75565b604082019050919050565b60006020820190508181036000830152612c0081612bc4565b9050919050565b7f4e487b7100000000000000000000000000000000000000000000000000000000600052601160045260246000fd5b6000612c4182611f5e565b9150612c4c83611f5e565b925082821015612c5f57612c5e612c07565b5b828203905092915050565b6000612c7582611f5e565b9150612c8083611f5e565b9250827fffffffffffffffffffffffffffffffffffffffffffffffffffffffffffffffff03821115612cb557612cb4612c07565b5b828201905092915050565b7f4552433732313a20617070726f766520746f2063616c6c657200000000000000600082015250565b6000612cf6601983611eae565b9150612d0182612cc0565b602082019050919050565b60006020820190508181036000830152612d2581612ce9565b9050919050565b7f4552433732313a207472616e7366657220746f206e6f6e20455243373231526560008201527f63656976657220696d706c656d656e7465720000000000000000000000000000602082015250565b6000612d88603283611eae565b9150612d9382612d2c565b604082019050919050565b60006020820190508181036000830152612db781612d7b565b9050919050565b7f4552433732314d657461646174613a2055524920717565727920666f72206e6f60008201527f6e6578697374656e7420746f6b656e0000000000000000000000000000000000602082015250565b6000612e1a602f83611eae565b9150612e2582612dbe565b604082019050919050565b60006020820190508181036000830152612e4981612e0d565b9050919050565b7f45524337323155524953746f726167653a2055524920736574206f66206e6f6e60008201527f6578697374656e7420746f6b656e000000000000000000000000000000000000602082015250565b6000612eac602e83611eae565b9150612eb782612e50565b604082019050919050565b60006020820190508181036000830152612edb81612e9f565b9050919050565b600081519050919050565b600082825260208201905092915050565b6000612f0982612ee2565b612f138185612eed565b9350612f23818560208601611ebf565b612f2c81611ef2565b840191505092915050565b6000608082019050612f4c6000830187611ff3565b612f596020830186611ff3565b612f666040830185612109565b8181036060830152612f788184612efe565b905095945050505050565b600081519050612f9281611e14565b92915050565b600060208284031215612fae57612fad611dde565b5b6000612fbc84828501612f83565b91505092915050565b6000612fd082611f5e565b91507fffffffffffffffffffffffffffffffffffffffffffffffffffffffffffffffff82141561300357613002612c07565b5b600182019050919050565b7f4e487b7100000000000000000000000000000000000000000000000000000000600052601260045260246000fd5b600061304882611f5e565b915061305383611f5e565b9250826130635761306261300e565b5b828204905092915050565b600061307982611f5e565b915061308483611f5e565b9250826130945761309361300e565b5b828206905092915050565b7f4e487b7100000000000000000000000000000000000000000000000000000000600052603260045260246000fd5b7f4552433732313a206d696e7420746f20746865207a65726f2061646472657373600082015250565b6000613104602083611eae565b915061310f826130ce565b602082019050919050565b60006020820190508181036000830152613133816130f7565b9050919050565b7f4552433732313a20746f6b656e20616c7265616479206d696e74656400000000600082015250565b6000613170601c83611eae565b915061317b8261313a565b602082019050919050565b6000602082019050818103600083015261319f81613163565b905091905056fea26469706673582212201d1708b79457736585e40170e13218384ff7ea8239c01120102989d18339308964736f6c634300080b0033",
  "immutableReferences": {},
  "source": "// SPDX-License-Identifier: MIT\npragma solidity ^0.8.2;\n\n// use these imports if using Remix, otherwise use the GitHub links\n// import \"@openzeppelin/contracts/token/ERC721/ERC721.sol\";\nimport \"@openzeppelin/contracts/token/ERC721/extensions/ERC721URIStorage.sol\";\nimport \"@openzeppelin/contracts/access/Ownable.sol\";\nimport \"@openzeppelin/contracts/utils/Counters.sol\"; \nimport \"../Utils/Strings.sol\";\n\n/**This contract implements basic ERC721 NFT functionality with auto-incremented token ID's and a method\n * for storing a base URI for off-chain metadata using the format baseURI + \"/\" + _tokenIdCounter\n * \n * Provide the uri variable in the constructor in string format. E.g. \"https://my-metadata.com/\"\n **/\ncontract NFT_BaseURI is ERC721URIStorage, Ownable {\n    using Counters for Counters.Counter;\n    using StringsUtils for string;\n\n    Counters.Counter private _tokenIdCounter;\n    string baseURI;\n\n    constructor(string memory name, string memory ticker, string memory baseUri) ERC721(name, ticker) {\n        _setBaseURI(baseUri);\n    }\n\n    function safeMint(address to) public onlyOwner {\n        _safeMint(to, _tokenIdCounter.current());\n        _tokenIdCounter.increment();\n    }\n\n    function safeMint(address to, string memory uri) public onlyOwner {\n        uint256 _tokenId = _tokenIdCounter.current();\n        safeMint(to);\n        _setTokenURI(_tokenId, uri);\n    }\n\n    function counter() public view returns (uint256) {\n        return _tokenIdCounter.current();\n    }\n\n    // function tokenURI(uint256 tokenId) public view override returns (string memory) {\n    //     string memory current_uri = super.tokenURI(tokenId);\n    //     if (!current_uri.contains(\".json\")) {\n    //         current_uri = string(abi.encodePacked(current_uri, \".json\"));\n    //     }\n\n    //     return current_uri;\n    // }\n    \n    function _setBaseURI(string memory baseURI_) internal {\n        baseURI = baseURI_;\n    }\n    \n    function _baseURI() internal view override returns (string memory) {\n        return baseURI;\n    }\n}\n",
  "sourcePath": "/Users/matanzu/Projects/blockchain/nft-deployment-amazon-managed-blockchain/truffle/contracts/NFTSamples/NFT_BaseURI.sol",
  "compiler": {
    "name": "solc",
    "version": "0.8.11+commit.d7f03943.Emscripten.clang"
  },
  "schemaVersion": "3.4.4",
  "updatedAt": "2022-02-16T09:50:17.286Z",
  "networkType": "ethereum",
  "devdoc": {
    "kind": "dev",
    "methods": {
      "approve(address,uint256)": {
        "details": "See {IERC721-approve}."
      },
      "balanceOf(address)": {
        "details": "See {IERC721-balanceOf}."
      },
      "getApproved(uint256)": {
        "details": "See {IERC721-getApproved}."
      },
      "isApprovedForAll(address,address)": {
        "details": "See {IERC721-isApprovedForAll}."
      },
      "name()": {
        "details": "See {IERC721Metadata-name}."
      },
      "owner()": {
        "details": "Returns the address of the current owner."
      },
      "ownerOf(uint256)": {
        "details": "See {IERC721-ownerOf}."
      },
      "renounceOwnership()": {
        "details": "Leaves the contract without owner. It will not be possible to call `onlyOwner` functions anymore. Can only be called by the current owner. NOTE: Renouncing ownership will leave the contract without an owner, thereby removing any functionality that is only available to the owner."
      },
      "safeTransferFrom(address,address,uint256)": {
        "details": "See {IERC721-safeTransferFrom}."
      },
      "safeTransferFrom(address,address,uint256,bytes)": {
        "details": "See {IERC721-safeTransferFrom}."
      },
      "setApprovalForAll(address,bool)": {
        "details": "See {IERC721-setApprovalForAll}."
      },
      "supportsInterface(bytes4)": {
        "details": "See {IERC165-supportsInterface}."
      },
      "symbol()": {
        "details": "See {IERC721Metadata-symbol}."
      },
      "tokenURI(uint256)": {
        "details": "See {IERC721Metadata-tokenURI}."
      },
      "transferFrom(address,address,uint256)": {
        "details": "See {IERC721-transferFrom}."
      },
      "transferOwnership(address)": {
        "details": "Transfers ownership of the contract to a new account (`newOwner`). Can only be called by the current owner."
      }
    },
    "version": 1
  },
  "userdoc": {
    "kind": "user",
    "methods": {},
    "notice": "This contract implements basic ERC721 NFT functionality with auto-incremented token ID's and a method for storing a base URI for off-chain metadata using the format baseURI + \"/\" + _tokenIdCounter  Provide the uri variable in the constructor in string format. E.g. \"https://my-metadata.com/\"*",
    "version": 1
  }
}