{
  "contractName": "NFTSample",
  "abi": [
    {
      "inputs": [],
      "stateMutability": "nonpayable",
      "type": "constructor"
    },
    {
      "anonymous": false,
      "inputs": [
        {
          "indexed": true,
          "internalType": "address",
          "name": "account",
          "type": "address"
        },
        {
          "indexed": true,
          "internalType": "address",
          "name": "operator",
          "type": "address"
        },
        {
          "indexed": false,
          "internalType": "bool",
          "name": "approved",
          "type": "bool"
        }
      ],
      "name": "ApprovalForAll",
      "type": "event"
    },
    {
      "anonymous": false,
      "inputs": [
        {
          "indexed": true,
          "internalType": "address",
          "name": "previousOwner",
          "type": "address"
        },
        {
          "indexed": true,
          "internalType": "address",
          "name": "newOwner",
          "type": "address"
        }
      ],
      "name": "OwnershipTransferred",
      "type": "event"
    },
    {
      "anonymous": false,
      "inputs": [
        {
          "indexed": true,
          "internalType": "address",
          "name": "operator",
          "type": "address"
        },
        {
          "indexed": true,
          "internalType": "address",
          "name": "from",
          "type": "address"
        },
        {
          "indexed": true,
          "internalType": "address",
          "name": "to",
          "type": "address"
        },
        {
          "indexed": false,
          "internalType": "uint256[]",
          "name": "ids",
          "type": "uint256[]"
        },
        {
          "indexed": false,
          "internalType": "uint256[]",
          "name": "values",
          "type": "uint256[]"
        }
      ],
      "name": "TransferBatch",
      "type": "event"
    },
    {
      "anonymous": false,
      "inputs": [
        {
          "indexed": true,
          "internalType": "address",
          "name": "operator",
          "type": "address"
        },
        {
          "indexed": true,
          "internalType": "address",
          "name": "from",
          "type": "address"
        },
        {
          "indexed": true,
          "internalType": "address",
          "name": "to",
          "type": "address"
        },
        {
          "indexed": false,
          "internalType": "uint256",
          "name": "id",
          "type": "uint256"
        },
        {
          "indexed": false,
          "internalType": "uint256",
          "name": "value",
          "type": "uint256"
        }
      ],
      "name": "TransferSingle",
      "type": "event"
    },
    {
      "anonymous": false,
      "inputs": [
        {
          "indexed": false,
          "internalType": "string",
          "name": "value",
          "type": "string"
        },
        {
          "indexed": true,
          "internalType": "uint256",
          "name": "id",
          "type": "uint256"
        }
      ],
      "name": "URI",
      "type": "event"
    },
    {
      "inputs": [
        {
          "internalType": "address",
          "name": "account",
          "type": "address"
        },
        {
          "internalType": "uint256",
          "name": "id",
          "type": "uint256"
        }
      ],
      "name": "balanceOf",
      "outputs": [
        {
          "internalType": "uint256",
          "name": "",
          "type": "uint256"
        }
      ],
      "stateMutability": "view",
      "type": "function"
    },
    {
      "inputs": [
        {
          "internalType": "address[]",
          "name": "accounts",
          "type": "address[]"
        },
        {
          "internalType": "uint256[]",
          "name": "ids",
          "type": "uint256[]"
        }
      ],
      "name": "balanceOfBatch",
      "outputs": [
        {
          "internalType": "uint256[]",
          "name": "",
          "type": "uint256[]"
        }
      ],
      "stateMutability": "view",
      "type": "function"
    },
    {
      "inputs": [
        {
          "internalType": "address",
          "name": "account",
          "type": "address"
        },
        {
          "internalType": "address",
          "name": "operator",
          "type": "address"
        }
      ],
      "name": "isApprovedForAll",
      "outputs": [
        {
          "internalType": "bool",
          "name": "",
          "type": "bool"
        }
      ],
      "stateMutability": "view",
      "type": "function"
    },
    {
      "inputs": [],
      "name": "owner",
      "outputs": [
        {
          "internalType": "address",
          "name": "",
          "type": "address"
        }
      ],
      "stateMutability": "view",
      "type": "function"
    },
    {
      "inputs": [],
      "name": "renounceOwnership",
      "outputs": [],
      "stateMutability": "nonpayable",
      "type": "function"
    },
    {
      "inputs": [
        {
          "internalType": "address",
          "name": "from",
          "type": "address"
        },
        {
          "internalType": "address",
          "name": "to",
          "type": "address"
        },
        {
          "internalType": "uint256[]",
          "name": "ids",
          "type": "uint256[]"
        },
        {
          "internalType": "uint256[]",
          "name": "amounts",
          "type": "uint256[]"
        },
        {
          "internalType": "bytes",
          "name": "data",
          "type": "bytes"
        }
      ],
      "name": "safeBatchTransferFrom",
      "outputs": [],
      "stateMutability": "nonpayable",
      "type": "function"
    },
    {
      "inputs": [
        {
          "internalType": "address",
          "name": "from",
          "type": "address"
        },
        {
          "internalType": "address",
          "name": "to",
          "type": "address"
        },
        {
          "internalType": "uint256",
          "name": "id",
          "type": "uint256"
        },
        {
          "internalType": "uint256",
          "name": "amount",
          "type": "uint256"
        },
        {
          "internalType": "bytes",
          "name": "data",
          "type": "bytes"
        }
      ],
      "name": "safeTransferFrom",
      "outputs": [],
      "stateMutability": "nonpayable",
      "type": "function"
    },
    {
      "inputs": [
        {
          "internalType": "address",
          "name": "operator",
          "type": "address"
        },
        {
          "internalType": "bool",
          "name": "approved",
          "type": "bool"
        }
      ],
      "name": "setApprovalForAll",
      "outputs": [],
      "stateMutability": "nonpayable",
      "type": "function"
    },
    {
      "inputs": [
        {
          "internalType": "bytes4",
          "name": "interfaceId",
          "type": "bytes4"
        }
      ],
      "name": "supportsInterface",
      "outputs": [
        {
          "internalType": "bool",
          "name": "",
          "type": "bool"
        }
      ],
      "stateMutability": "view",
      "type": "function"
    },
    {
      "inputs": [
        {
          "internalType": "address",
          "name": "newOwner",
          "type": "address"
        }
      ],
      "name": "transferOwnership",
      "outputs": [],
      "stateMutability": "nonpayable",
      "type": "function"
    },
    {
      "inputs": [
        {
          "internalType": "uint256",
          "name": "",
          "type": "uint256"
        }
      ],
      "name": "uri",
      "outputs": [
        {
          "internalType": "string",
          "name": "",
          "type": "string"
        }
      ],
      "stateMutability": "view",
      "type": "function"
    },
    {
      "inputs": [
        {
          "internalType": "address",
          "name": "to",
          "type": "address"
        },
        {
          "internalType": "uint256[]",
          "name": "ids",
          "type": "uint256[]"
        },
        {
          "internalType": "uint256[]",
          "name": "amounts",
          "type": "uint256[]"
        },
        {
          "internalType": "bytes",
          "name": "data",
          "type": "bytes"
        }
      ],
      "name": "mintBatch",
      "outputs": [],
      "stateMutability": "nonpayable",
      "type": "function"
    },
    {
      "inputs": [
        {
          "internalType": "address",
          "name": "to",
          "type": "address"
        },
        {
          "internalType": "uint256[]",
          "name": "ids",
          "type": "uint256[]"
        },
        {
          "internalType": "uint256[]",
          "name": "amounts",
          "type": "uint256[]"
        }
      ],
      "name": "burnBatch",
      "outputs": [],
      "stateMutability": "nonpayable",
      "type": "function"
    },
    {
      "inputs": [
        {
          "internalType": "address",
          "name": "from",
          "type": "address"
        },
        {
          "internalType": "bool",
          "name": "allow",
          "type": "bool"
        }
      ],
      "name": "allowAddress",
      "outputs": [],
      "stateMutability": "nonpayable",
      "type": "function"
    }
  ],
  "bytecode": "0x60806040523480156200001157600080fd5b5060405180606001604052806021815260200162003818602191396200003d816200006460201b60201c565b506200005e620000526200008060201b60201c565b6200008860201b60201c565b62000263565b80600290805190602001906200007c9291906200014e565b5050565b600033905090565b6000600360009054906101000a900473ffffffffffffffffffffffffffffffffffffffff16905081600360006101000a81548173ffffffffffffffffffffffffffffffffffffffff021916908373ffffffffffffffffffffffffffffffffffffffff1602179055508173ffffffffffffffffffffffffffffffffffffffff168173ffffffffffffffffffffffffffffffffffffffff167f8be0079c531659141344cd1fd0a4f28419497f9722a3daafe3b4186f6b6457e060405160405180910390a35050565b8280546200015c906200022d565b90600052602060002090601f016020900481019282620001805760008555620001cc565b82601f106200019b57805160ff1916838001178555620001cc565b82800160010185558215620001cc579182015b82811115620001cb578251825591602001919060010190620001ae565b5b509050620001db9190620001df565b5090565b5b80821115620001fa576000816000905550600101620001e0565b5090565b7f4e487b7100000000000000000000000000000000000000000000000000000000600052602260045260246000fd5b600060028204905060018216806200024657607f821691505b602082108114156200025d576200025c620001fe565b5b50919050565b6135a580620002736000396000f3fe608060405234801561001057600080fd5b50600436106100e95760003560e01c80636b20c4541161008c578063a22cb46511610066578063a22cb46514610246578063e985e9c514610262578063f242432a14610292578063f2fde38b146102ae576100e9565b80636b20c45414610202578063715018a61461021e5780638da5cb5b14610228576100e9565b80631f7fdffa116100c85780631f7fdffa1461017e5780632eb2c2d61461019a5780634e1273f4146101b65780634edc689d146101e6576100e9565b8062fdd58e146100ee57806301ffc9a71461011e5780630e89341c1461014e575b600080fd5b61010860048036038101906101039190611e9f565b6102ca565b6040516101159190611eee565b60405180910390f35b61013860048036038101906101339190611f61565b610393565b6040516101459190611fa9565b60405180910390f35b61016860048036038101906101639190611fc4565b610475565b604051610175919061208a565b60405180910390f35b610198600480360381019061019391906122a9565b610509565b005b6101b460048036038101906101af9190612364565b610597565b005b6101d060048036038101906101cb91906124f6565b610638565b6040516101dd919061262c565b60405180910390f35b61020060048036038101906101fb919061267a565b610751565b005b61021c600480360381019061021791906126ba565b610828565b005b6102266108b4565b005b61023061093c565b60405161023d9190612754565b60405180910390f35b610260600480360381019061025b919061267a565b610966565b005b61027c6004803603810190610277919061276f565b61097c565b6040516102899190611fa9565b60405180910390f35b6102ac60048036038101906102a791906127af565b610a10565b005b6102c860048036038101906102c39190612846565b610ab1565b005b60008073ffffffffffffffffffffffffffffffffffffffff168373ffffffffffffffffffffffffffffffffffffffff16141561033b576040517f08c379a0000000000000000000000000000000000000000000000000000000008152600401610332906128e5565b60405180910390fd5b60008083815260200190815260200160002060008473ffffffffffffffffffffffffffffffffffffffff1673ffffffffffffffffffffffffffffffffffffffff16815260200190815260200160002054905092915050565b60007fd9b67a26000000000000000000000000000000000000000000000000000000007bffffffffffffffffffffffffffffffffffffffffffffffffffffffff1916827bffffffffffffffffffffffffffffffffffffffffffffffffffffffff1916148061045e57507f0e89341c000000000000000000000000000000000000000000000000000000007bffffffffffffffffffffffffffffffffffffffffffffffffffffffff1916827bffffffffffffffffffffffffffffffffffffffffffffffffffffffff1916145b8061046e575061046d82610ba9565b5b9050919050565b60606002805461048490612934565b80601f01602080910402602001604051908101604052809291908181526020018280546104b090612934565b80156104fd5780601f106104d2576101008083540402835291602001916104fd565b820191906000526020600020905b8154815290600101906020018083116104e057829003601f168201915b50505050509050919050565b610511610c13565b73ffffffffffffffffffffffffffffffffffffffff1661052f61093c565b73ffffffffffffffffffffffffffffffffffffffff1614610585576040517f08c379a000000000000000000000000000000000000000000000000000000000815260040161057c906129b2565b60405180910390fd5b61059184848484610c1b565b50505050565b61059f610c13565b73ffffffffffffffffffffffffffffffffffffffff168573ffffffffffffffffffffffffffffffffffffffff1614806105e557506105e4856105df610c13565b61097c565b5b610624576040517f08c379a000000000000000000000000000000000000000000000000000000000815260040161061b90612a44565b60405180910390fd5b6106318585858585610e39565b5050505050565b6060815183511461067e576040517f08c379a000000000000000000000000000000000000000000000000000000000815260040161067590612ad6565b60405180910390fd5b6000835167ffffffffffffffff81111561069b5761069a6120b1565b5b6040519080825280602002602001820160405280156106c95781602001602082028036833780820191505090505b50905060005b8451811015610746576107168582815181106106ee576106ed612af6565b5b602002602001015185838151811061070957610708612af6565b5b60200260200101516102ca565b82828151811061072957610728612af6565b5b6020026020010181815250508061073f90612b54565b90506106cf565b508091505092915050565b610759610c13565b73ffffffffffffffffffffffffffffffffffffffff1661077761093c565b73ffffffffffffffffffffffffffffffffffffffff16146107cd576040517f08c379a00000000000000000000000000000000000000000000000000000000081526004016107c4906129b2565b60405180910390fd5b80600460008473ffffffffffffffffffffffffffffffffffffffff1673ffffffffffffffffffffffffffffffffffffffff16815260200190815260200160002060006101000a81548160ff0219169083151502179055505050565b610830610c13565b73ffffffffffffffffffffffffffffffffffffffff1661084e61093c565b73ffffffffffffffffffffffffffffffffffffffff16146108a4576040517f08c379a000000000000000000000000000000000000000000000000000000000815260040161089b906129b2565b60405180910390fd5b6108af83838361114d565b505050565b6108bc610c13565b73ffffffffffffffffffffffffffffffffffffffff166108da61093c565b73ffffffffffffffffffffffffffffffffffffffff1614610930576040517f08c379a0000000000000000000000000000000000000000000000000000000008152600401610927906129b2565b60405180910390fd5b61093a60006113fe565b565b6000600360009054906101000a900473ffffffffffffffffffffffffffffffffffffffff16905090565b610978610971610c13565b83836114c4565b5050565b6000600160008473ffffffffffffffffffffffffffffffffffffffff1673ffffffffffffffffffffffffffffffffffffffff16815260200190815260200160002060008373ffffffffffffffffffffffffffffffffffffffff1673ffffffffffffffffffffffffffffffffffffffff16815260200190815260200160002060009054906101000a900460ff16905092915050565b610a18610c13565b73ffffffffffffffffffffffffffffffffffffffff168573ffffffffffffffffffffffffffffffffffffffff161480610a5e5750610a5d85610a58610c13565b61097c565b5b610a9d576040517f08c379a0000000000000000000000000000000000000000000000000000000008152600401610a9490612c0f565b60405180910390fd5b610aaa8585858585611631565b5050505050565b610ab9610c13565b73ffffffffffffffffffffffffffffffffffffffff16610ad761093c565b73ffffffffffffffffffffffffffffffffffffffff1614610b2d576040517f08c379a0000000000000000000000000000000000000000000000000000000008152600401610b24906129b2565b60405180910390fd5b600073ffffffffffffffffffffffffffffffffffffffff168173ffffffffffffffffffffffffffffffffffffffff161415610b9d576040517f08c379a0000000000000000000000000000000000000000000000000000000008152600401610b9490612ca1565b60405180910390fd5b610ba6816113fe565b50565b60007f01ffc9a7000000000000000000000000000000000000000000000000000000007bffffffffffffffffffffffffffffffffffffffffffffffffffffffff1916827bffffffffffffffffffffffffffffffffffffffffffffffffffffffff1916149050919050565b600033905090565b600073ffffffffffffffffffffffffffffffffffffffff168473ffffffffffffffffffffffffffffffffffffffff161415610c8b576040517f08c379a0000000000000000000000000000000000000000000000000000000008152600401610c8290612d33565b60405180910390fd5b8151835114610ccf576040517f08c379a0000000000000000000000000000000000000000000000000000000008152600401610cc690612dc5565b60405180910390fd5b6000610cd9610c13565b9050610cea816000878787876118b3565b60005b8451811015610da357838181518110610d0957610d08612af6565b5b6020026020010151600080878481518110610d2757610d26612af6565b5b6020026020010151815260200190815260200160002060008873ffffffffffffffffffffffffffffffffffffffff1673ffffffffffffffffffffffffffffffffffffffff1681526020019081526020016000206000828254610d899190612de5565b925050819055508080610d9b90612b54565b915050610ced565b508473ffffffffffffffffffffffffffffffffffffffff16600073ffffffffffffffffffffffffffffffffffffffff168273ffffffffffffffffffffffffffffffffffffffff167f4a39dc06d4c0dbc64b70af90fd698a233a518aa5d07e595d983b8c0526c8f7fb8787604051610e1b929190612e3b565b60405180910390a4610e328160008787878761194c565b5050505050565b8151835114610e7d576040517f08c379a0000000000000000000000000000000000000000000000000000000008152600401610e7490612dc5565b60405180910390fd5b600073ffffffffffffffffffffffffffffffffffffffff168473ffffffffffffffffffffffffffffffffffffffff161415610eed576040517f08c379a0000000000000000000000000000000000000000000000000000000008152600401610ee490612ee4565b60405180910390fd5b6000610ef7610c13565b9050610f078187878787876118b3565b60005b84518110156110b8576000858281518110610f2857610f27612af6565b5b602002602001015190506000858381518110610f4757610f46612af6565b5b60200260200101519050600080600084815260200190815260200160002060008b73ffffffffffffffffffffffffffffffffffffffff1673ffffffffffffffffffffffffffffffffffffffff16815260200190815260200160002054905081811015610fe8576040517f08c379a0000000000000000000000000000000000000000000000000000000008152600401610fdf90612f76565b60405180910390fd5b81810360008085815260200190815260200160002060008c73ffffffffffffffffffffffffffffffffffffffff1673ffffffffffffffffffffffffffffffffffffffff168152602001908152602001600020819055508160008085815260200190815260200160002060008b73ffffffffffffffffffffffffffffffffffffffff1673ffffffffffffffffffffffffffffffffffffffff168152602001908152602001600020600082825461109d9190612de5565b92505081905550505050806110b190612b54565b9050610f0a565b508473ffffffffffffffffffffffffffffffffffffffff168673ffffffffffffffffffffffffffffffffffffffff168273ffffffffffffffffffffffffffffffffffffffff167f4a39dc06d4c0dbc64b70af90fd698a233a518aa5d07e595d983b8c0526c8f7fb878760405161112f929190612e3b565b60405180910390a461114581878787878761194c565b505050505050565b600073ffffffffffffffffffffffffffffffffffffffff168373ffffffffffffffffffffffffffffffffffffffff1614156111bd576040517f08c379a00000000000000000000000000000000000000000000000000000000081526004016111b490613008565b60405180910390fd5b8051825114611201576040517f08c379a00000000000000000000000000000000000000000000000000000000081526004016111f890612dc5565b60405180910390fd5b600061120b610c13565b905061122b818560008686604051806020016040528060008152506118b3565b60005b835181101561137857600084828151811061124c5761124b612af6565b5b60200260200101519050600084838151811061126b5761126a612af6565b5b60200260200101519050600080600084815260200190815260200160002060008973ffffffffffffffffffffffffffffffffffffffff1673ffffffffffffffffffffffffffffffffffffffff1681526020019081526020016000205490508181101561130c576040517f08c379a00000000000000000000000000000000000000000000000000000000081526004016113039061309a565b60405180910390fd5b81810360008085815260200190815260200160002060008a73ffffffffffffffffffffffffffffffffffffffff1673ffffffffffffffffffffffffffffffffffffffff16815260200190815260200160002081905550505050808061137090612b54565b91505061122e565b50600073ffffffffffffffffffffffffffffffffffffffff168473ffffffffffffffffffffffffffffffffffffffff168273ffffffffffffffffffffffffffffffffffffffff167f4a39dc06d4c0dbc64b70af90fd698a233a518aa5d07e595d983b8c0526c8f7fb86866040516113f0929190612e3b565b60405180910390a450505050565b6000600360009054906101000a900473ffffffffffffffffffffffffffffffffffffffff16905081600360006101000a81548173ffffffffffffffffffffffffffffffffffffffff021916908373ffffffffffffffffffffffffffffffffffffffff1602179055508173ffffffffffffffffffffffffffffffffffffffff168173ffffffffffffffffffffffffffffffffffffffff167f8be0079c531659141344cd1fd0a4f28419497f9722a3daafe3b4186f6b6457e060405160405180910390a35050565b8173ffffffffffffffffffffffffffffffffffffffff168373ffffffffffffffffffffffffffffffffffffffff161415611533576040517f08c379a000000000000000000000000000000000000000000000000000000000815260040161152a9061312c565b60405180910390fd5b80600160008573ffffffffffffffffffffffffffffffffffffffff1673ffffffffffffffffffffffffffffffffffffffff16815260200190815260200160002060008473ffffffffffffffffffffffffffffffffffffffff1673ffffffffffffffffffffffffffffffffffffffff16815260200190815260200160002060006101000a81548160ff0219169083151502179055508173ffffffffffffffffffffffffffffffffffffffff168373ffffffffffffffffffffffffffffffffffffffff167f17307eab39ab6107e8899845ad3d59bd9653f200f220920489ca2b5937696c31836040516116249190611fa9565b60405180910390a3505050565b600073ffffffffffffffffffffffffffffffffffffffff168473ffffffffffffffffffffffffffffffffffffffff1614156116a1576040517f08c379a000000000000000000000000000000000000000000000000000000000815260040161169890612ee4565b60405180910390fd5b60006116ab610c13565b90506116cb8187876116bc88611b24565b6116c588611b24565b876118b3565b600080600086815260200190815260200160002060008873ffffffffffffffffffffffffffffffffffffffff1673ffffffffffffffffffffffffffffffffffffffff16815260200190815260200160002054905083811015611762576040517f08c379a000000000000000000000000000000000000000000000000000000000815260040161175990612f76565b60405180910390fd5b83810360008087815260200190815260200160002060008973ffffffffffffffffffffffffffffffffffffffff1673ffffffffffffffffffffffffffffffffffffffff168152602001908152602001600020819055508360008087815260200190815260200160002060008873ffffffffffffffffffffffffffffffffffffffff1673ffffffffffffffffffffffffffffffffffffffff16815260200190815260200160002060008282546118179190612de5565b925050819055508573ffffffffffffffffffffffffffffffffffffffff168773ffffffffffffffffffffffffffffffffffffffff168373ffffffffffffffffffffffffffffffffffffffff167fc3d58168c5ae7397731d063d5bbf3d657854427343f4c083240f7aacaa2d0f62888860405161189492919061314c565b60405180910390a46118aa828888888888611b9e565b50505050505050565b6118c1868686868686611d76565b6118c961093c565b73ffffffffffffffffffffffffffffffffffffffff163373ffffffffffffffffffffffffffffffffffffffff16146119445761190485611d7e565b611943576040517f08c379a000000000000000000000000000000000000000000000000000000000815260040161193a9061320d565b60405180910390fd5b5b505050505050565b61196b8473ffffffffffffffffffffffffffffffffffffffff16611dd4565b15611b1c578373ffffffffffffffffffffffffffffffffffffffff1663bc197c8187878686866040518663ffffffff1660e01b81526004016119b1959493929190613282565b6020604051808303816000875af19250505080156119ed57506040513d601f19601f820116820180604052508101906119ea91906132ff565b60015b611a93576119f9613339565b806308c379a01415611a565750611a0e61335b565b80611a195750611a58565b806040517f08c379a0000000000000000000000000000000000000000000000000000000008152600401611a4d919061208a565b60405180910390fd5b505b6040517f08c379a0000000000000000000000000000000000000000000000000000000008152600401611a8a90613463565b60405180910390fd5b63bc197c8160e01b7bffffffffffffffffffffffffffffffffffffffffffffffffffffffff1916817bffffffffffffffffffffffffffffffffffffffffffffffffffffffff191614611b1a576040517f08c379a0000000000000000000000000000000000000000000000000000000008152600401611b11906134f5565b60405180910390fd5b505b505050505050565b60606000600167ffffffffffffffff811115611b4357611b426120b1565b5b604051908082528060200260200182016040528015611b715781602001602082028036833780820191505090505b5090508281600081518110611b8957611b88612af6565b5b60200260200101818152505080915050919050565b611bbd8473ffffffffffffffffffffffffffffffffffffffff16611dd4565b15611d6e578373ffffffffffffffffffffffffffffffffffffffff1663f23a6e6187878686866040518663ffffffff1660e01b8152600401611c03959493929190613515565b6020604051808303816000875af1925050508015611c3f57506040513d601f19601f82011682018060405250810190611c3c91906132ff565b60015b611ce557611c4b613339565b806308c379a01415611ca85750611c6061335b565b80611c6b5750611caa565b806040517f08c379a0000000000000000000000000000000000000000000000000000000008152600401611c9f919061208a565b60405180910390fd5b505b6040517f08c379a0000000000000000000000000000000000000000000000000000000008152600401611cdc90613463565b60405180910390fd5b63f23a6e6160e01b7bffffffffffffffffffffffffffffffffffffffffffffffffffffffff1916817bffffffffffffffffffffffffffffffffffffffffffffffffffffffff191614611d6c576040517f08c379a0000000000000000000000000000000000000000000000000000000008152600401611d63906134f5565b60405180910390fd5b505b505050505050565b505050505050565b6000600460008373ffffffffffffffffffffffffffffffffffffffff1673ffffffffffffffffffffffffffffffffffffffff16815260200190815260200160002060009054906101000a900460ff169050919050565b6000808273ffffffffffffffffffffffffffffffffffffffff163b119050919050565b6000604051905090565b600080fd5b600080fd5b600073ffffffffffffffffffffffffffffffffffffffff82169050919050565b6000611e3682611e0b565b9050919050565b611e4681611e2b565b8114611e5157600080fd5b50565b600081359050611e6381611e3d565b92915050565b6000819050919050565b611e7c81611e69565b8114611e8757600080fd5b50565b600081359050611e9981611e73565b92915050565b60008060408385031215611eb657611eb5611e01565b5b6000611ec485828601611e54565b9250506020611ed585828601611e8a565b9150509250929050565b611ee881611e69565b82525050565b6000602082019050611f036000830184611edf565b92915050565b60007fffffffff0000000000000000000000000000000000000000000000000000000082169050919050565b611f3e81611f09565b8114611f4957600080fd5b50565b600081359050611f5b81611f35565b92915050565b600060208284031215611f7757611f76611e01565b5b6000611f8584828501611f4c565b91505092915050565b60008115159050919050565b611fa381611f8e565b82525050565b6000602082019050611fbe6000830184611f9a565b92915050565b600060208284031215611fda57611fd9611e01565b5b6000611fe884828501611e8a565b91505092915050565b600081519050919050565b600082825260208201905092915050565b60005b8381101561202b578082015181840152602081019050612010565b8381111561203a576000848401525b50505050565b6000601f19601f8301169050919050565b600061205c82611ff1565b6120668185611ffc565b935061207681856020860161200d565b61207f81612040565b840191505092915050565b600060208201905081810360008301526120a48184612051565b905092915050565b600080fd5b7f4e487b7100000000000000000000000000000000000000000000000000000000600052604160045260246000fd5b6120e982612040565b810181811067ffffffffffffffff82111715612108576121076120b1565b5b80604052505050565b600061211b611df7565b905061212782826120e0565b919050565b600067ffffffffffffffff821115612147576121466120b1565b5b602082029050602081019050919050565b600080fd5b600061217061216b8461212c565b612111565b9050808382526020820190506020840283018581111561219357612192612158565b5b835b818110156121bc57806121a88882611e8a565b845260208401935050602081019050612195565b5050509392505050565b600082601f8301126121db576121da6120ac565b5b81356121eb84826020860161215d565b91505092915050565b600080fd5b600067ffffffffffffffff821115612214576122136120b1565b5b61221d82612040565b9050602081019050919050565b82818337600083830152505050565b600061224c612247846121f9565b612111565b905082815260208101848484011115612268576122676121f4565b5b61227384828561222a565b509392505050565b600082601f8301126122905761228f6120ac565b5b81356122a0848260208601612239565b91505092915050565b600080600080608085870312156122c3576122c2611e01565b5b60006122d187828801611e54565b945050602085013567ffffffffffffffff8111156122f2576122f1611e06565b5b6122fe878288016121c6565b935050604085013567ffffffffffffffff81111561231f5761231e611e06565b5b61232b878288016121c6565b925050606085013567ffffffffffffffff81111561234c5761234b611e06565b5b6123588782880161227b565b91505092959194509250565b600080600080600060a086880312156123805761237f611e01565b5b600061238e88828901611e54565b955050602061239f88828901611e54565b945050604086013567ffffffffffffffff8111156123c0576123bf611e06565b5b6123cc888289016121c6565b935050606086013567ffffffffffffffff8111156123ed576123ec611e06565b5b6123f9888289016121c6565b925050608086013567ffffffffffffffff81111561241a57612419611e06565b5b6124268882890161227b565b9150509295509295909350565b600067ffffffffffffffff82111561244e5761244d6120b1565b5b602082029050602081019050919050565b600061247261246d84612433565b612111565b9050808382526020820190506020840283018581111561249557612494612158565b5b835b818110156124be57806124aa8882611e54565b845260208401935050602081019050612497565b5050509392505050565b600082601f8301126124dd576124dc6120ac565b5b81356124ed84826020860161245f565b91505092915050565b6000806040838503121561250d5761250c611e01565b5b600083013567ffffffffffffffff81111561252b5761252a611e06565b5b612537858286016124c8565b925050602083013567ffffffffffffffff81111561255857612557611e06565b5b612564858286016121c6565b9150509250929050565b600081519050919050565b600082825260208201905092915050565b6000819050602082019050919050565b6125a381611e69565b82525050565b60006125b5838361259a565b60208301905092915050565b6000602082019050919050565b60006125d98261256e565b6125e38185612579565b93506125ee8361258a565b8060005b8381101561261f57815161260688826125a9565b9750612611836125c1565b9250506001810190506125f2565b5085935050505092915050565b6000602082019050818103600083015261264681846125ce565b905092915050565b61265781611f8e565b811461266257600080fd5b50565b6000813590506126748161264e565b92915050565b6000806040838503121561269157612690611e01565b5b600061269f85828601611e54565b92505060206126b085828601612665565b9150509250929050565b6000806000606084860312156126d3576126d2611e01565b5b60006126e186828701611e54565b935050602084013567ffffffffffffffff81111561270257612701611e06565b5b61270e868287016121c6565b925050604084013567ffffffffffffffff81111561272f5761272e611e06565b5b61273b868287016121c6565b9150509250925092565b61274e81611e2b565b82525050565b60006020820190506127696000830184612745565b92915050565b6000806040838503121561278657612785611e01565b5b600061279485828601611e54565b92505060206127a585828601611e54565b9150509250929050565b600080600080600060a086880312156127cb576127ca611e01565b5b60006127d988828901611e54565b95505060206127ea88828901611e54565b94505060406127fb88828901611e8a565b935050606061280c88828901611e8a565b925050608086013567ffffffffffffffff81111561282d5761282c611e06565b5b6128398882890161227b565b9150509295509295909350565b60006020828403121561285c5761285b611e01565b5b600061286a84828501611e54565b91505092915050565b7f455243313135353a2062616c616e636520717565727920666f7220746865207a60008201527f65726f2061646472657373000000000000000000000000000000000000000000602082015250565b60006128cf602b83611ffc565b91506128da82612873565b604082019050919050565b600060208201905081810360008301526128fe816128c2565b9050919050565b7f4e487b7100000000000000000000000000000000000000000000000000000000600052602260045260246000fd5b6000600282049050600182168061294c57607f821691505b602082108114156129605761295f612905565b5b50919050565b7f4f776e61626c653a2063616c6c6572206973206e6f7420746865206f776e6572600082015250565b600061299c602083611ffc565b91506129a782612966565b602082019050919050565b600060208201905081810360008301526129cb8161298f565b9050919050565b7f455243313135353a207472616e736665722063616c6c6572206973206e6f742060008201527f6f776e6572206e6f7220617070726f7665640000000000000000000000000000602082015250565b6000612a2e603283611ffc565b9150612a39826129d2565b604082019050919050565b60006020820190508181036000830152612a5d81612a21565b9050919050565b7f455243313135353a206163636f756e747320616e6420696473206c656e67746860008201527f206d69736d617463680000000000000000000000000000000000000000000000602082015250565b6000612ac0602983611ffc565b9150612acb82612a64565b604082019050919050565b60006020820190508181036000830152612aef81612ab3565b9050919050565b7f4e487b7100000000000000000000000000000000000000000000000000000000600052603260045260246000fd5b7f4e487b7100000000000000000000000000000000000000000000000000000000600052601160045260246000fd5b6000612b5f82611e69565b91507fffffffffffffffffffffffffffffffffffffffffffffffffffffffffffffffff821415612b9257612b91612b25565b5b600182019050919050565b7f455243313135353a2063616c6c6572206973206e6f74206f776e6572206e6f7260008201527f20617070726f7665640000000000000000000000000000000000000000000000602082015250565b6000612bf9602983611ffc565b9150612c0482612b9d565b604082019050919050565b60006020820190508181036000830152612c2881612bec565b9050919050565b7f4f776e61626c653a206e6577206f776e657220697320746865207a65726f206160008201527f6464726573730000000000000000000000000000000000000000000000000000602082015250565b6000612c8b602683611ffc565b9150612c9682612c2f565b604082019050919050565b60006020820190508181036000830152612cba81612c7e565b9050919050565b7f455243313135353a206d696e7420746f20746865207a65726f2061646472657360008201527f7300000000000000000000000000000000000000000000000000000000000000602082015250565b6000612d1d602183611ffc565b9150612d2882612cc1565b604082019050919050565b60006020820190508181036000830152612d4c81612d10565b9050919050565b7f455243313135353a2069647320616e6420616d6f756e7473206c656e6774682060008201527f6d69736d61746368000000000000000000000000000000000000000000000000602082015250565b6000612daf602883611ffc565b9150612dba82612d53565b604082019050919050565b60006020820190508181036000830152612dde81612da2565b9050919050565b6000612df082611e69565b9150612dfb83611e69565b9250827fffffffffffffffffffffffffffffffffffffffffffffffffffffffffffffffff03821115612e3057612e2f612b25565b5b828201905092915050565b60006040820190508181036000830152612e5581856125ce565b90508181036020830152612e6981846125ce565b90509392505050565b7f455243313135353a207472616e7366657220746f20746865207a65726f20616460008201527f6472657373000000000000000000000000000000000000000000000000000000602082015250565b6000612ece602583611ffc565b9150612ed982612e72565b604082019050919050565b60006020820190508181036000830152612efd81612ec1565b9050919050565b7f455243313135353a20696e73756666696369656e742062616c616e636520666f60008201527f72207472616e7366657200000000000000000000000000000000000000000000602082015250565b6000612f60602a83611ffc565b9150612f6b82612f04565b604082019050919050565b60006020820190508181036000830152612f8f81612f53565b9050919050565b7f455243313135353a206275726e2066726f6d20746865207a65726f206164647260008201527f6573730000000000000000000000000000000000000000000000000000000000602082015250565b6000612ff2602383611ffc565b9150612ffd82612f96565b604082019050919050565b6000602082019050818103600083015261302181612fe5565b9050919050565b7f455243313135353a206275726e20616d6f756e7420657863656564732062616c60008201527f616e636500000000000000000000000000000000000000000000000000000000602082015250565b6000613084602483611ffc565b915061308f82613028565b604082019050919050565b600060208201905081810360008301526130b381613077565b9050919050565b7f455243313135353a2073657474696e6720617070726f76616c2073746174757360008201527f20666f722073656c660000000000000000000000000000000000000000000000602082015250565b6000613116602983611ffc565b9150613121826130ba565b604082019050919050565b6000602082019050818103600083015261314581613109565b9050919050565b60006040820190506131616000830185611edf565b61316e6020830184611edf565b9392505050565b7f45524331353557697468536166655472616e736665723a20746869732061646460008201527f7265737320646f6573206e6f742068617665207065726d697373696f6e20746f60208201527f207472616e7366657220746f6b656e7300000000000000000000000000000000604082015250565b60006131f7605083611ffc565b915061320282613175565b606082019050919050565b60006020820190508181036000830152613226816131ea565b9050919050565b600081519050919050565b600082825260208201905092915050565b60006132548261322d565b61325e8185613238565b935061326e81856020860161200d565b61327781612040565b840191505092915050565b600060a0820190506132976000830188612745565b6132a46020830187612745565b81810360408301526132b681866125ce565b905081810360608301526132ca81856125ce565b905081810360808301526132de8184613249565b90509695505050505050565b6000815190506132f981611f35565b92915050565b60006020828403121561331557613314611e01565b5b6000613323848285016132ea565b91505092915050565b60008160e01c9050919050565b600060033d11156133585760046000803e61335560005161332c565b90505b90565b600060443d101561336b576133ee565b613373611df7565b60043d036004823e80513d602482011167ffffffffffffffff8211171561339b5750506133ee565b808201805167ffffffffffffffff8111156133b957505050506133ee565b80602083010160043d0385018111156133d65750505050506133ee565b6133e5826020018501866120e0565b82955050505050505b90565b7f455243313135353a207472616e7366657220746f206e6f6e204552433131353560008201527f526563656976657220696d706c656d656e746572000000000000000000000000602082015250565b600061344d603483611ffc565b9150613458826133f1565b604082019050919050565b6000602082019050818103600083015261347c81613440565b9050919050565b7f455243313135353a204552433131353552656365697665722072656a6563746560008201527f6420746f6b656e73000000000000000000000000000000000000000000000000602082015250565b60006134df602883611ffc565b91506134ea82613483565b604082019050919050565b6000602082019050818103600083015261350e816134d2565b9050919050565b600060a08201905061352a6000830188612745565b6135376020830187612745565b6135446040830186611edf565b6135516060830185611edf565b81810360808301526135638184613249565b9050969550505050505056fea26469706673582212209f715469042f7275952291f3f3002a311329043c293cc789d4f868dcfe9a983964736f6c634300080b003368747470733a2f2f6578616d706c652e63646e2f636f6d2f7b69647d2e6a736f6e",
  "immutableReferences": {},
  "source": "// SPDX-License-Identifier: MIT\npragma solidity ^0.8.0;\n\n//imports a specific Solidity contract from the Open Zeppelin Github repository; \n//check the latest version # and update it in the import statement's path as needed\n/* import \"https://github.com/OpenZeppelin/openzeppelin-contracts/blob/v3.3.0/contracts/token/ERC1155/ERC1155.sol\";\nimport \"https://github.com/OpenZeppelin/openzeppelin-contracts/blob/v3.3.0/contracts/access/Ownable.sol\"; */\nimport \"@openzeppelin/contracts/token/ERC1155/ERC1155.sol\";\nimport \"@openzeppelin/contracts/access/Ownable.sol\";\n\n\n/**\n* @author Forrest Colyer (AWS), inherits from Open Zeppelin contracts\n* @title A simple ERC1155 fungibility-agnostic token contract w/ access control and batch functions\n*/\ncontract NFTSample is ERC1155, Ownable {\n    \n    //maps addresses to boolean flags for allowance and revocation of allowance to receive tokens\n    //an address mapped to 'false' will be blocked from being sent tokens\n    mapping(address => bool) internal allowedAddresses;\n\n    \n    constructor () ERC1155(\"https://example.cdn/com/{id}.json\") \n    {\n    \n    }\n    \n    function mintBatch(address to, uint256[] memory ids, uint256[] memory amounts, bytes memory data) public onlyOwner {\n        super._mintBatch(to, ids, amounts, data);\n    }\n    \n    function burnBatch(address to, uint256[] memory ids, uint256[] memory amounts) public onlyOwner {\n        super._burnBatch(to, ids, amounts);\n    }\n    \n    \n    /**\n     * allowAddress: adds an Ethereum address to the allow list to transfer tokens\n     * @param from - the Ethereum address of the sender to add to the allow list\n     * @param allow - the boolean value denoting whether the to address is allowed to transfer/send tokens\n     * \n     * @dev provide the address for the sender and boolean 'false' to deny and 'true' to allow token transfers\n     */\n    function allowAddress(address from, bool allow) public onlyOwner {\n        allowedAddresses[from] = allow;\n    }\n    \n    \n    function _beforeTokenTransfer(address operator, address from, address to, uint256[] memory ids, uint256[] memory amounts, bytes memory data)\n        internal virtual override\n    {\n        super._beforeTokenTransfer(operator, from, to, ids, amounts, data);\n\n        if(msg.sender != owner()) { \n            require(_validSender(from), \"ERC155WithSafeTransfer: this address does not have permission to transfer tokens\");\n        }\n    }\n\n    /**\n     * _validSender: checks the \n     * @param from - the Ethereum address of the sender to check against the allow list\n     * \n     * @dev the allow list is only checked for 'true' or 'false'; transfers initiated by the contract owner are not checked\n     * \n     */\n    function _validSender(address from) private view returns (bool) {\n        //add logic for 'magic phrase' here to validate recipients?\n        return allowedAddresses[from];\n        \n    }\n}",
  "sourcePath": "/Users/matanzu/Projects/blockchain/nft-deployment-amazon-managed-blockchain/truffle/contracts/NFTSamples/NFTSample.sol",
  "compiler": {
    "name": "solc",
    "version": "0.8.11+commit.d7f03943.Emscripten.clang"
  },
  "schemaVersion": "3.4.4",
  "updatedAt": "2022-02-16T09:27:21.194Z",
  "devdoc": {
    "author": "Forrest Colyer (AWS), inherits from Open Zeppelin contracts",
    "kind": "dev",
    "methods": {
      "allowAddress(address,bool)": {
        "details": "provide the address for the sender and boolean 'false' to deny and 'true' to allow token transfers",
        "params": {
          "allow": "- the boolean value denoting whether the to address is allowed to transfer/send tokens ",
          "from": "- the Ethereum address of the sender to add to the allow list"
        }
      },
      "balanceOf(address,uint256)": {
        "details": "See {IERC1155-balanceOf}. Requirements: - `account` cannot be the zero address."
      },
      "balanceOfBatch(address[],uint256[])": {
        "details": "See {IERC1155-balanceOfBatch}. Requirements: - `accounts` and `ids` must have the same length."
      },
      "isApprovedForAll(address,address)": {
        "details": "See {IERC1155-isApprovedForAll}."
      },
      "owner()": {
        "details": "Returns the address of the current owner."
      },
      "renounceOwnership()": {
        "details": "Leaves the contract without owner. It will not be possible to call `onlyOwner` functions anymore. Can only be called by the current owner. NOTE: Renouncing ownership will leave the contract without an owner, thereby removing any functionality that is only available to the owner."
      },
      "safeBatchTransferFrom(address,address,uint256[],uint256[],bytes)": {
        "details": "See {IERC1155-safeBatchTransferFrom}."
      },
      "safeTransferFrom(address,address,uint256,uint256,bytes)": {
        "details": "See {IERC1155-safeTransferFrom}."
      },
      "setApprovalForAll(address,bool)": {
        "details": "See {IERC1155-setApprovalForAll}."
      },
      "supportsInterface(bytes4)": {
        "details": "See {IERC165-supportsInterface}."
      },
      "transferOwnership(address)": {
        "details": "Transfers ownership of the contract to a new account (`newOwner`). Can only be called by the current owner."
      },
      "uri(uint256)": {
        "details": "See {IERC1155MetadataURI-uri}. This implementation returns the same URI for *all* token types. It relies on the token type ID substitution mechanism https://eips.ethereum.org/EIPS/eip-1155#metadata[defined in the EIP]. Clients calling this function must replace the `\\{id\\}` substring with the actual token type ID."
      }
    },
    "title": "A simple ERC1155 fungibility-agnostic token contract w/ access control and batch functions",
    "version": 1
  },
  "userdoc": {
    "kind": "user",
    "methods": {
      "allowAddress(address,bool)": {
        "notice": "allowAddress: adds an Ethereum address to the allow list to transfer tokens"
      }
    },
    "version": 1
  }
}