{
  "contractName": "NFTSample",
  "abi": [
    {
      "inputs": [],
      "stateMutability": "nonpayable",
      "type": "constructor"
    },
    {
      "anonymous": false,
      "inputs": [
        {
          "indexed": true,
          "internalType": "address",
          "name": "account",
          "type": "address"
        },
        {
          "indexed": true,
          "internalType": "address",
          "name": "operator",
          "type": "address"
        },
        {
          "indexed": false,
          "internalType": "bool",
          "name": "approved",
          "type": "bool"
        }
      ],
      "name": "ApprovalForAll",
      "type": "event"
    },
    {
      "anonymous": false,
      "inputs": [
        {
          "indexed": true,
          "internalType": "address",
          "name": "previousOwner",
          "type": "address"
        },
        {
          "indexed": true,
          "internalType": "address",
          "name": "newOwner",
          "type": "address"
        }
      ],
      "name": "OwnershipTransferred",
      "type": "event"
    },
    {
      "anonymous": false,
      "inputs": [
        {
          "indexed": true,
          "internalType": "address",
          "name": "operator",
          "type": "address"
        },
        {
          "indexed": true,
          "internalType": "address",
          "name": "from",
          "type": "address"
        },
        {
          "indexed": true,
          "internalType": "address",
          "name": "to",
          "type": "address"
        },
        {
          "indexed": false,
          "internalType": "uint256[]",
          "name": "ids",
          "type": "uint256[]"
        },
        {
          "indexed": false,
          "internalType": "uint256[]",
          "name": "values",
          "type": "uint256[]"
        }
      ],
      "name": "TransferBatch",
      "type": "event"
    },
    {
      "anonymous": false,
      "inputs": [
        {
          "indexed": true,
          "internalType": "address",
          "name": "operator",
          "type": "address"
        },
        {
          "indexed": true,
          "internalType": "address",
          "name": "from",
          "type": "address"
        },
        {
          "indexed": true,
          "internalType": "address",
          "name": "to",
          "type": "address"
        },
        {
          "indexed": false,
          "internalType": "uint256",
          "name": "id",
          "type": "uint256"
        },
        {
          "indexed": false,
          "internalType": "uint256",
          "name": "value",
          "type": "uint256"
        }
      ],
      "name": "TransferSingle",
      "type": "event"
    },
    {
      "anonymous": false,
      "inputs": [
        {
          "indexed": false,
          "internalType": "string",
          "name": "value",
          "type": "string"
        },
        {
          "indexed": true,
          "internalType": "uint256",
          "name": "id",
          "type": "uint256"
        }
      ],
      "name": "URI",
      "type": "event"
    },
    {
      "inputs": [
        {
          "internalType": "address",
          "name": "account",
          "type": "address"
        },
        {
          "internalType": "uint256",
          "name": "id",
          "type": "uint256"
        }
      ],
      "name": "balanceOf",
      "outputs": [
        {
          "internalType": "uint256",
          "name": "",
          "type": "uint256"
        }
      ],
      "stateMutability": "view",
      "type": "function"
    },
    {
      "inputs": [
        {
          "internalType": "address[]",
          "name": "accounts",
          "type": "address[]"
        },
        {
          "internalType": "uint256[]",
          "name": "ids",
          "type": "uint256[]"
        }
      ],
      "name": "balanceOfBatch",
      "outputs": [
        {
          "internalType": "uint256[]",
          "name": "",
          "type": "uint256[]"
        }
      ],
      "stateMutability": "view",
      "type": "function"
    },
    {
      "inputs": [
        {
          "internalType": "address",
          "name": "account",
          "type": "address"
        },
        {
          "internalType": "address",
          "name": "operator",
          "type": "address"
        }
      ],
      "name": "isApprovedForAll",
      "outputs": [
        {
          "internalType": "bool",
          "name": "",
          "type": "bool"
        }
      ],
      "stateMutability": "view",
      "type": "function"
    },
    {
      "inputs": [],
      "name": "owner",
      "outputs": [
        {
          "internalType": "address",
          "name": "",
          "type": "address"
        }
      ],
      "stateMutability": "view",
      "type": "function"
    },
    {
      "inputs": [],
      "name": "renounceOwnership",
      "outputs": [],
      "stateMutability": "nonpayable",
      "type": "function"
    },
    {
      "inputs": [
        {
          "internalType": "address",
          "name": "from",
          "type": "address"
        },
        {
          "internalType": "address",
          "name": "to",
          "type": "address"
        },
        {
          "internalType": "uint256[]",
          "name": "ids",
          "type": "uint256[]"
        },
        {
          "internalType": "uint256[]",
          "name": "amounts",
          "type": "uint256[]"
        },
        {
          "internalType": "bytes",
          "name": "data",
          "type": "bytes"
        }
      ],
      "name": "safeBatchTransferFrom",
      "outputs": [],
      "stateMutability": "nonpayable",
      "type": "function"
    },
    {
      "inputs": [
        {
          "internalType": "address",
          "name": "from",
          "type": "address"
        },
        {
          "internalType": "address",
          "name": "to",
          "type": "address"
        },
        {
          "internalType": "uint256",
          "name": "id",
          "type": "uint256"
        },
        {
          "internalType": "uint256",
          "name": "amount",
          "type": "uint256"
        },
        {
          "internalType": "bytes",
          "name": "data",
          "type": "bytes"
        }
      ],
      "name": "safeTransferFrom",
      "outputs": [],
      "stateMutability": "nonpayable",
      "type": "function"
    },
    {
      "inputs": [
        {
          "internalType": "address",
          "name": "operator",
          "type": "address"
        },
        {
          "internalType": "bool",
          "name": "approved",
          "type": "bool"
        }
      ],
      "name": "setApprovalForAll",
      "outputs": [],
      "stateMutability": "nonpayable",
      "type": "function"
    },
    {
      "inputs": [
        {
          "internalType": "bytes4",
          "name": "interfaceId",
          "type": "bytes4"
        }
      ],
      "name": "supportsInterface",
      "outputs": [
        {
          "internalType": "bool",
          "name": "",
          "type": "bool"
        }
      ],
      "stateMutability": "view",
      "type": "function"
    },
    {
      "inputs": [
        {
          "internalType": "address",
          "name": "newOwner",
          "type": "address"
        }
      ],
      "name": "transferOwnership",
      "outputs": [],
      "stateMutability": "nonpayable",
      "type": "function"
    },
    {
      "inputs": [
        {
          "internalType": "uint256",
          "name": "",
          "type": "uint256"
        }
      ],
      "name": "uri",
      "outputs": [
        {
          "internalType": "string",
          "name": "",
          "type": "string"
        }
      ],
      "stateMutability": "view",
      "type": "function"
    },
    {
      "inputs": [
        {
          "internalType": "address",
          "name": "to",
          "type": "address"
        },
        {
          "internalType": "uint256[]",
          "name": "ids",
          "type": "uint256[]"
        },
        {
          "internalType": "uint256[]",
          "name": "amounts",
          "type": "uint256[]"
        },
        {
          "internalType": "bytes",
          "name": "data",
          "type": "bytes"
        }
      ],
      "name": "mintBatch",
      "outputs": [],
      "stateMutability": "nonpayable",
      "type": "function"
    },
    {
      "inputs": [
        {
          "internalType": "address",
          "name": "to",
          "type": "address"
        },
        {
          "internalType": "uint256[]",
          "name": "ids",
          "type": "uint256[]"
        },
        {
          "internalType": "uint256[]",
          "name": "amounts",
          "type": "uint256[]"
        }
      ],
      "name": "burnBatch",
      "outputs": [],
      "stateMutability": "nonpayable",
      "type": "function"
    },
    {
      "inputs": [
        {
          "internalType": "address",
          "name": "from",
          "type": "address"
        },
        {
          "internalType": "bool",
          "name": "allow",
          "type": "bool"
        }
      ],
      "name": "allowAddress",
      "outputs": [],
      "stateMutability": "nonpayable",
      "type": "function"
    }
  ],
  "bytecode": "0x60806040523480156200001157600080fd5b5060405180606001604052806021815260200162003808602191396200003d816200006460201b60201c565b506200005e620000526200008060201b60201c565b6200008860201b60201c565b62000263565b80600290805190602001906200007c9291906200014e565b5050565b600033905090565b6000600360009054906101000a900473ffffffffffffffffffffffffffffffffffffffff16905081600360006101000a81548173ffffffffffffffffffffffffffffffffffffffff021916908373ffffffffffffffffffffffffffffffffffffffff1602179055508173ffffffffffffffffffffffffffffffffffffffff168173ffffffffffffffffffffffffffffffffffffffff167f8be0079c531659141344cd1fd0a4f28419497f9722a3daafe3b4186f6b6457e060405160405180910390a35050565b8280546200015c906200022d565b90600052602060002090601f016020900481019282620001805760008555620001cc565b82601f106200019b57805160ff1916838001178555620001cc565b82800160010185558215620001cc579182015b82811115620001cb578251825591602001919060010190620001ae565b5b509050620001db9190620001df565b5090565b5b80821115620001fa576000816000905550600101620001e0565b5090565b7f4e487b7100000000000000000000000000000000000000000000000000000000600052602260045260246000fd5b600060028204905060018216806200024657607f821691505b602082108114156200025d576200025c620001fe565b5b50919050565b61359580620002736000396000f3fe608060405234801561001057600080fd5b50600436106100e95760003560e01c80636b20c4541161008c578063a22cb46511610066578063a22cb46514610246578063e985e9c514610262578063f242432a14610292578063f2fde38b146102ae576100e9565b80636b20c45414610202578063715018a61461021e5780638da5cb5b14610228576100e9565b80631f7fdffa116100c85780631f7fdffa1461017e5780632eb2c2d61461019a5780634e1273f4146101b65780634edc689d146101e6576100e9565b8062fdd58e146100ee57806301ffc9a71461011e5780630e89341c1461014e575b600080fd5b61010860048036038101906101039190611e8f565b6102ca565b6040516101159190611ede565b60405180910390f35b61013860048036038101906101339190611f51565b610393565b6040516101459190611f99565b60405180910390f35b61016860048036038101906101639190611fb4565b610475565b604051610175919061207a565b60405180910390f35b61019860048036038101906101939190612299565b610509565b005b6101b460048036038101906101af9190612354565b610597565b005b6101d060048036038101906101cb91906124e6565b610638565b6040516101dd919061261c565b60405180910390f35b61020060048036038101906101fb919061266a565b610751565b005b61021c600480360381019061021791906126aa565b610828565b005b6102266108b4565b005b61023061093c565b60405161023d9190612744565b60405180910390f35b610260600480360381019061025b919061266a565b610966565b005b61027c6004803603810190610277919061275f565b61097c565b6040516102899190611f99565b60405180910390f35b6102ac60048036038101906102a7919061279f565b610a10565b005b6102c860048036038101906102c39190612836565b610ab1565b005b60008073ffffffffffffffffffffffffffffffffffffffff168373ffffffffffffffffffffffffffffffffffffffff16141561033b576040517f08c379a0000000000000000000000000000000000000000000000000000000008152600401610332906128d5565b60405180910390fd5b60008083815260200190815260200160002060008473ffffffffffffffffffffffffffffffffffffffff1673ffffffffffffffffffffffffffffffffffffffff16815260200190815260200160002054905092915050565b60007fd9b67a26000000000000000000000000000000000000000000000000000000007bffffffffffffffffffffffffffffffffffffffffffffffffffffffff1916827bffffffffffffffffffffffffffffffffffffffffffffffffffffffff1916148061045e57507f0e89341c000000000000000000000000000000000000000000000000000000007bffffffffffffffffffffffffffffffffffffffffffffffffffffffff1916827bffffffffffffffffffffffffffffffffffffffffffffffffffffffff1916145b8061046e575061046d82610ba9565b5b9050919050565b60606002805461048490612924565b80601f01602080910402602001604051908101604052809291908181526020018280546104b090612924565b80156104fd5780601f106104d2576101008083540402835291602001916104fd565b820191906000526020600020905b8154815290600101906020018083116104e057829003601f168201915b50505050509050919050565b610511610c13565b73ffffffffffffffffffffffffffffffffffffffff1661052f61093c565b73ffffffffffffffffffffffffffffffffffffffff1614610585576040517f08c379a000000000000000000000000000000000000000000000000000000000815260040161057c906129a2565b60405180910390fd5b61059184848484610c1b565b50505050565b61059f610c13565b73ffffffffffffffffffffffffffffffffffffffff168573ffffffffffffffffffffffffffffffffffffffff1614806105e557506105e4856105df610c13565b61097c565b5b610624576040517f08c379a000000000000000000000000000000000000000000000000000000000815260040161061b90612a34565b60405180910390fd5b6106318585858585610e39565b5050505050565b6060815183511461067e576040517f08c379a000000000000000000000000000000000000000000000000000000000815260040161067590612ac6565b60405180910390fd5b6000835167ffffffffffffffff81111561069b5761069a6120a1565b5b6040519080825280602002602001820160405280156106c95781602001602082028036833780820191505090505b50905060005b8451811015610746576107168582815181106106ee576106ed612ae6565b5b602002602001015185838151811061070957610708612ae6565b5b60200260200101516102ca565b82828151811061072957610728612ae6565b5b6020026020010181815250508061073f90612b44565b90506106cf565b508091505092915050565b610759610c13565b73ffffffffffffffffffffffffffffffffffffffff1661077761093c565b73ffffffffffffffffffffffffffffffffffffffff16146107cd576040517f08c379a00000000000000000000000000000000000000000000000000000000081526004016107c4906129a2565b60405180910390fd5b80600460008473ffffffffffffffffffffffffffffffffffffffff1673ffffffffffffffffffffffffffffffffffffffff16815260200190815260200160002060006101000a81548160ff0219169083151502179055505050565b610830610c13565b73ffffffffffffffffffffffffffffffffffffffff1661084e61093c565b73ffffffffffffffffffffffffffffffffffffffff16146108a4576040517f08c379a000000000000000000000000000000000000000000000000000000000815260040161089b906129a2565b60405180910390fd5b6108af83838361114d565b505050565b6108bc610c13565b73ffffffffffffffffffffffffffffffffffffffff166108da61093c565b73ffffffffffffffffffffffffffffffffffffffff1614610930576040517f08c379a0000000000000000000000000000000000000000000000000000000008152600401610927906129a2565b60405180910390fd5b61093a60006113fe565b565b6000600360009054906101000a900473ffffffffffffffffffffffffffffffffffffffff16905090565b610978610971610c13565b83836114c4565b5050565b6000600160008473ffffffffffffffffffffffffffffffffffffffff1673ffffffffffffffffffffffffffffffffffffffff16815260200190815260200160002060008373ffffffffffffffffffffffffffffffffffffffff1673ffffffffffffffffffffffffffffffffffffffff16815260200190815260200160002060009054906101000a900460ff16905092915050565b610a18610c13565b73ffffffffffffffffffffffffffffffffffffffff168573ffffffffffffffffffffffffffffffffffffffff161480610a5e5750610a5d85610a58610c13565b61097c565b5b610a9d576040517f08c379a0000000000000000000000000000000000000000000000000000000008152600401610a9490612bff565b60405180910390fd5b610aaa8585858585611631565b5050505050565b610ab9610c13565b73ffffffffffffffffffffffffffffffffffffffff16610ad761093c565b73ffffffffffffffffffffffffffffffffffffffff1614610b2d576040517f08c379a0000000000000000000000000000000000000000000000000000000008152600401610b24906129a2565b60405180910390fd5b600073ffffffffffffffffffffffffffffffffffffffff168173ffffffffffffffffffffffffffffffffffffffff161415610b9d576040517f08c379a0000000000000000000000000000000000000000000000000000000008152600401610b9490612c91565b60405180910390fd5b610ba6816113fe565b50565b60007f01ffc9a7000000000000000000000000000000000000000000000000000000007bffffffffffffffffffffffffffffffffffffffffffffffffffffffff1916827bffffffffffffffffffffffffffffffffffffffffffffffffffffffff1916149050919050565b600033905090565b600073ffffffffffffffffffffffffffffffffffffffff168473ffffffffffffffffffffffffffffffffffffffff161415610c8b576040517f08c379a0000000000000000000000000000000000000000000000000000000008152600401610c8290612d23565b60405180910390fd5b8151835114610ccf576040517f08c379a0000000000000000000000000000000000000000000000000000000008152600401610cc690612db5565b60405180910390fd5b6000610cd9610c13565b9050610cea816000878787876118b3565b60005b8451811015610da357838181518110610d0957610d08612ae6565b5b6020026020010151600080878481518110610d2757610d26612ae6565b5b6020026020010151815260200190815260200160002060008873ffffffffffffffffffffffffffffffffffffffff1673ffffffffffffffffffffffffffffffffffffffff1681526020019081526020016000206000828254610d899190612dd5565b925050819055508080610d9b90612b44565b915050610ced565b508473ffffffffffffffffffffffffffffffffffffffff16600073ffffffffffffffffffffffffffffffffffffffff168273ffffffffffffffffffffffffffffffffffffffff167f4a39dc06d4c0dbc64b70af90fd698a233a518aa5d07e595d983b8c0526c8f7fb8787604051610e1b929190612e2b565b60405180910390a4610e328160008787878761194c565b5050505050565b8151835114610e7d576040517f08c379a0000000000000000000000000000000000000000000000000000000008152600401610e7490612db5565b60405180910390fd5b600073ffffffffffffffffffffffffffffffffffffffff168473ffffffffffffffffffffffffffffffffffffffff161415610eed576040517f08c379a0000000000000000000000000000000000000000000000000000000008152600401610ee490612ed4565b60405180910390fd5b6000610ef7610c13565b9050610f078187878787876118b3565b60005b84518110156110b8576000858281518110610f2857610f27612ae6565b5b602002602001015190506000858381518110610f4757610f46612ae6565b5b60200260200101519050600080600084815260200190815260200160002060008b73ffffffffffffffffffffffffffffffffffffffff1673ffffffffffffffffffffffffffffffffffffffff16815260200190815260200160002054905081811015610fe8576040517f08c379a0000000000000000000000000000000000000000000000000000000008152600401610fdf90612f66565b60405180910390fd5b81810360008085815260200190815260200160002060008c73ffffffffffffffffffffffffffffffffffffffff1673ffffffffffffffffffffffffffffffffffffffff168152602001908152602001600020819055508160008085815260200190815260200160002060008b73ffffffffffffffffffffffffffffffffffffffff1673ffffffffffffffffffffffffffffffffffffffff168152602001908152602001600020600082825461109d9190612dd5565b92505081905550505050806110b190612b44565b9050610f0a565b508473ffffffffffffffffffffffffffffffffffffffff168673ffffffffffffffffffffffffffffffffffffffff168273ffffffffffffffffffffffffffffffffffffffff167f4a39dc06d4c0dbc64b70af90fd698a233a518aa5d07e595d983b8c0526c8f7fb878760405161112f929190612e2b565b60405180910390a461114581878787878761194c565b505050505050565b600073ffffffffffffffffffffffffffffffffffffffff168373ffffffffffffffffffffffffffffffffffffffff1614156111bd576040517f08c379a00000000000000000000000000000000000000000000000000000000081526004016111b490612ff8565b60405180910390fd5b8051825114611201576040517f08c379a00000000000000000000000000000000000000000000000000000000081526004016111f890612db5565b60405180910390fd5b600061120b610c13565b905061122b818560008686604051806020016040528060008152506118b3565b60005b835181101561137857600084828151811061124c5761124b612ae6565b5b60200260200101519050600084838151811061126b5761126a612ae6565b5b60200260200101519050600080600084815260200190815260200160002060008973ffffffffffffffffffffffffffffffffffffffff1673ffffffffffffffffffffffffffffffffffffffff1681526020019081526020016000205490508181101561130c576040517f08c379a00000000000000000000000000000000000000000000000000000000081526004016113039061308a565b60405180910390fd5b81810360008085815260200190815260200160002060008a73ffffffffffffffffffffffffffffffffffffffff1673ffffffffffffffffffffffffffffffffffffffff16815260200190815260200160002081905550505050808061137090612b44565b91505061122e565b50600073ffffffffffffffffffffffffffffffffffffffff168473ffffffffffffffffffffffffffffffffffffffff168273ffffffffffffffffffffffffffffffffffffffff167f4a39dc06d4c0dbc64b70af90fd698a233a518aa5d07e595d983b8c0526c8f7fb86866040516113f0929190612e2b565b60405180910390a450505050565b6000600360009054906101000a900473ffffffffffffffffffffffffffffffffffffffff16905081600360006101000a81548173ffffffffffffffffffffffffffffffffffffffff021916908373ffffffffffffffffffffffffffffffffffffffff1602179055508173ffffffffffffffffffffffffffffffffffffffff168173ffffffffffffffffffffffffffffffffffffffff167f8be0079c531659141344cd1fd0a4f28419497f9722a3daafe3b4186f6b6457e060405160405180910390a35050565b8173ffffffffffffffffffffffffffffffffffffffff168373ffffffffffffffffffffffffffffffffffffffff161415611533576040517f08c379a000000000000000000000000000000000000000000000000000000000815260040161152a9061311c565b60405180910390fd5b80600160008573ffffffffffffffffffffffffffffffffffffffff1673ffffffffffffffffffffffffffffffffffffffff16815260200190815260200160002060008473ffffffffffffffffffffffffffffffffffffffff1673ffffffffffffffffffffffffffffffffffffffff16815260200190815260200160002060006101000a81548160ff0219169083151502179055508173ffffffffffffffffffffffffffffffffffffffff168373ffffffffffffffffffffffffffffffffffffffff167f17307eab39ab6107e8899845ad3d59bd9653f200f220920489ca2b5937696c31836040516116249190611f99565b60405180910390a3505050565b600073ffffffffffffffffffffffffffffffffffffffff168473ffffffffffffffffffffffffffffffffffffffff1614156116a1576040517f08c379a000000000000000000000000000000000000000000000000000000000815260040161169890612ed4565b60405180910390fd5b60006116ab610c13565b90506116cb8187876116bc88611b24565b6116c588611b24565b876118b3565b600080600086815260200190815260200160002060008873ffffffffffffffffffffffffffffffffffffffff1673ffffffffffffffffffffffffffffffffffffffff16815260200190815260200160002054905083811015611762576040517f08c379a000000000000000000000000000000000000000000000000000000000815260040161175990612f66565b60405180910390fd5b83810360008087815260200190815260200160002060008973ffffffffffffffffffffffffffffffffffffffff1673ffffffffffffffffffffffffffffffffffffffff168152602001908152602001600020819055508360008087815260200190815260200160002060008873ffffffffffffffffffffffffffffffffffffffff1673ffffffffffffffffffffffffffffffffffffffff16815260200190815260200160002060008282546118179190612dd5565b925050819055508573ffffffffffffffffffffffffffffffffffffffff168773ffffffffffffffffffffffffffffffffffffffff168373ffffffffffffffffffffffffffffffffffffffff167fc3d58168c5ae7397731d063d5bbf3d657854427343f4c083240f7aacaa2d0f62888860405161189492919061313c565b60405180910390a46118aa828888888888611b9e565b50505050505050565b6118c1868686868686611d76565b6118c961093c565b73ffffffffffffffffffffffffffffffffffffffff163373ffffffffffffffffffffffffffffffffffffffff16146119445761190485611d7e565b611943576040517f08c379a000000000000000000000000000000000000000000000000000000000815260040161193a906131fd565b60405180910390fd5b5b505050505050565b61196b8473ffffffffffffffffffffffffffffffffffffffff16611dd4565b15611b1c578373ffffffffffffffffffffffffffffffffffffffff1663bc197c8187878686866040518663ffffffff1660e01b81526004016119b1959493929190613272565b6020604051808303816000875af19250505080156119ed57506040513d601f19601f820116820180604052508101906119ea91906132ef565b60015b611a93576119f9613329565b806308c379a01415611a565750611a0e61334b565b80611a195750611a58565b806040517f08c379a0000000000000000000000000000000000000000000000000000000008152600401611a4d919061207a565b60405180910390fd5b505b6040517f08c379a0000000000000000000000000000000000000000000000000000000008152600401611a8a90613453565b60405180910390fd5b63bc197c8160e01b7bffffffffffffffffffffffffffffffffffffffffffffffffffffffff1916817bffffffffffffffffffffffffffffffffffffffffffffffffffffffff191614611b1a576040517f08c379a0000000000000000000000000000000000000000000000000000000008152600401611b11906134e5565b60405180910390fd5b505b505050505050565b60606000600167ffffffffffffffff811115611b4357611b426120a1565b5b604051908082528060200260200182016040528015611b715781602001602082028036833780820191505090505b5090508281600081518110611b8957611b88612ae6565b5b60200260200101818152505080915050919050565b611bbd8473ffffffffffffffffffffffffffffffffffffffff16611dd4565b15611d6e578373ffffffffffffffffffffffffffffffffffffffff1663f23a6e6187878686866040518663ffffffff1660e01b8152600401611c03959493929190613505565b6020604051808303816000875af1925050508015611c3f57506040513d601f19601f82011682018060405250810190611c3c91906132ef565b60015b611ce557611c4b613329565b806308c379a01415611ca85750611c6061334b565b80611c6b5750611caa565b806040517f08c379a0000000000000000000000000000000000000000000000000000000008152600401611c9f919061207a565b60405180910390fd5b505b6040517f08c379a0000000000000000000000000000000000000000000000000000000008152600401611cdc90613453565b60405180910390fd5b63f23a6e6160e01b7bffffffffffffffffffffffffffffffffffffffffffffffffffffffff1916817bffffffffffffffffffffffffffffffffffffffffffffffffffffffff191614611d6c576040517f08c379a0000000000000000000000000000000000000000000000000000000008152600401611d63906134e5565b60405180910390fd5b505b505050505050565b505050505050565b6000600460008373ffffffffffffffffffffffffffffffffffffffff1673ffffffffffffffffffffffffffffffffffffffff16815260200190815260200160002060009054906101000a900460ff169050919050565b600080823b905060008111915050919050565b6000604051905090565b600080fd5b600080fd5b600073ffffffffffffffffffffffffffffffffffffffff82169050919050565b6000611e2682611dfb565b9050919050565b611e3681611e1b565b8114611e4157600080fd5b50565b600081359050611e5381611e2d565b92915050565b6000819050919050565b611e6c81611e59565b8114611e7757600080fd5b50565b600081359050611e8981611e63565b92915050565b60008060408385031215611ea657611ea5611df1565b5b6000611eb485828601611e44565b9250506020611ec585828601611e7a565b9150509250929050565b611ed881611e59565b82525050565b6000602082019050611ef36000830184611ecf565b92915050565b60007fffffffff0000000000000000000000000000000000000000000000000000000082169050919050565b611f2e81611ef9565b8114611f3957600080fd5b50565b600081359050611f4b81611f25565b92915050565b600060208284031215611f6757611f66611df1565b5b6000611f7584828501611f3c565b91505092915050565b60008115159050919050565b611f9381611f7e565b82525050565b6000602082019050611fae6000830184611f8a565b92915050565b600060208284031215611fca57611fc9611df1565b5b6000611fd884828501611e7a565b91505092915050565b600081519050919050565b600082825260208201905092915050565b60005b8381101561201b578082015181840152602081019050612000565b8381111561202a576000848401525b50505050565b6000601f19601f8301169050919050565b600061204c82611fe1565b6120568185611fec565b9350612066818560208601611ffd565b61206f81612030565b840191505092915050565b600060208201905081810360008301526120948184612041565b905092915050565b600080fd5b7f4e487b7100000000000000000000000000000000000000000000000000000000600052604160045260246000fd5b6120d982612030565b810181811067ffffffffffffffff821117156120f8576120f76120a1565b5b80604052505050565b600061210b611de7565b905061211782826120d0565b919050565b600067ffffffffffffffff821115612137576121366120a1565b5b602082029050602081019050919050565b600080fd5b600061216061215b8461211c565b612101565b9050808382526020820190506020840283018581111561218357612182612148565b5b835b818110156121ac57806121988882611e7a565b845260208401935050602081019050612185565b5050509392505050565b600082601f8301126121cb576121ca61209c565b5b81356121db84826020860161214d565b91505092915050565b600080fd5b600067ffffffffffffffff821115612204576122036120a1565b5b61220d82612030565b9050602081019050919050565b82818337600083830152505050565b600061223c612237846121e9565b612101565b905082815260208101848484011115612258576122576121e4565b5b61226384828561221a565b509392505050565b600082601f8301126122805761227f61209c565b5b8135612290848260208601612229565b91505092915050565b600080600080608085870312156122b3576122b2611df1565b5b60006122c187828801611e44565b945050602085013567ffffffffffffffff8111156122e2576122e1611df6565b5b6122ee878288016121b6565b935050604085013567ffffffffffffffff81111561230f5761230e611df6565b5b61231b878288016121b6565b925050606085013567ffffffffffffffff81111561233c5761233b611df6565b5b6123488782880161226b565b91505092959194509250565b600080600080600060a086880312156123705761236f611df1565b5b600061237e88828901611e44565b955050602061238f88828901611e44565b945050604086013567ffffffffffffffff8111156123b0576123af611df6565b5b6123bc888289016121b6565b935050606086013567ffffffffffffffff8111156123dd576123dc611df6565b5b6123e9888289016121b6565b925050608086013567ffffffffffffffff81111561240a57612409611df6565b5b6124168882890161226b565b9150509295509295909350565b600067ffffffffffffffff82111561243e5761243d6120a1565b5b602082029050602081019050919050565b600061246261245d84612423565b612101565b9050808382526020820190506020840283018581111561248557612484612148565b5b835b818110156124ae578061249a8882611e44565b845260208401935050602081019050612487565b5050509392505050565b600082601f8301126124cd576124cc61209c565b5b81356124dd84826020860161244f565b91505092915050565b600080604083850312156124fd576124fc611df1565b5b600083013567ffffffffffffffff81111561251b5761251a611df6565b5b612527858286016124b8565b925050602083013567ffffffffffffffff81111561254857612547611df6565b5b612554858286016121b6565b9150509250929050565b600081519050919050565b600082825260208201905092915050565b6000819050602082019050919050565b61259381611e59565b82525050565b60006125a5838361258a565b60208301905092915050565b6000602082019050919050565b60006125c98261255e565b6125d38185612569565b93506125de8361257a565b8060005b8381101561260f5781516125f68882612599565b9750612601836125b1565b9250506001810190506125e2565b5085935050505092915050565b6000602082019050818103600083015261263681846125be565b905092915050565b61264781611f7e565b811461265257600080fd5b50565b6000813590506126648161263e565b92915050565b6000806040838503121561268157612680611df1565b5b600061268f85828601611e44565b92505060206126a085828601612655565b9150509250929050565b6000806000606084860312156126c3576126c2611df1565b5b60006126d186828701611e44565b935050602084013567ffffffffffffffff8111156126f2576126f1611df6565b5b6126fe868287016121b6565b925050604084013567ffffffffffffffff81111561271f5761271e611df6565b5b61272b868287016121b6565b9150509250925092565b61273e81611e1b565b82525050565b60006020820190506127596000830184612735565b92915050565b6000806040838503121561277657612775611df1565b5b600061278485828601611e44565b925050602061279585828601611e44565b9150509250929050565b600080600080600060a086880312156127bb576127ba611df1565b5b60006127c988828901611e44565b95505060206127da88828901611e44565b94505060406127eb88828901611e7a565b93505060606127fc88828901611e7a565b925050608086013567ffffffffffffffff81111561281d5761281c611df6565b5b6128298882890161226b565b9150509295509295909350565b60006020828403121561284c5761284b611df1565b5b600061285a84828501611e44565b91505092915050565b7f455243313135353a2062616c616e636520717565727920666f7220746865207a60008201527f65726f2061646472657373000000000000000000000000000000000000000000602082015250565b60006128bf602b83611fec565b91506128ca82612863565b604082019050919050565b600060208201905081810360008301526128ee816128b2565b9050919050565b7f4e487b7100000000000000000000000000000000000000000000000000000000600052602260045260246000fd5b6000600282049050600182168061293c57607f821691505b602082108114156129505761294f6128f5565b5b50919050565b7f4f776e61626c653a2063616c6c6572206973206e6f7420746865206f776e6572600082015250565b600061298c602083611fec565b915061299782612956565b602082019050919050565b600060208201905081810360008301526129bb8161297f565b9050919050565b7f455243313135353a207472616e736665722063616c6c6572206973206e6f742060008201527f6f776e6572206e6f7220617070726f7665640000000000000000000000000000602082015250565b6000612a1e603283611fec565b9150612a29826129c2565b604082019050919050565b60006020820190508181036000830152612a4d81612a11565b9050919050565b7f455243313135353a206163636f756e747320616e6420696473206c656e67746860008201527f206d69736d617463680000000000000000000000000000000000000000000000602082015250565b6000612ab0602983611fec565b9150612abb82612a54565b604082019050919050565b60006020820190508181036000830152612adf81612aa3565b9050919050565b7f4e487b7100000000000000000000000000000000000000000000000000000000600052603260045260246000fd5b7f4e487b7100000000000000000000000000000000000000000000000000000000600052601160045260246000fd5b6000612b4f82611e59565b91507fffffffffffffffffffffffffffffffffffffffffffffffffffffffffffffffff821415612b8257612b81612b15565b5b600182019050919050565b7f455243313135353a2063616c6c6572206973206e6f74206f776e6572206e6f7260008201527f20617070726f7665640000000000000000000000000000000000000000000000602082015250565b6000612be9602983611fec565b9150612bf482612b8d565b604082019050919050565b60006020820190508181036000830152612c1881612bdc565b9050919050565b7f4f776e61626c653a206e6577206f776e657220697320746865207a65726f206160008201527f6464726573730000000000000000000000000000000000000000000000000000602082015250565b6000612c7b602683611fec565b9150612c8682612c1f565b604082019050919050565b60006020820190508181036000830152612caa81612c6e565b9050919050565b7f455243313135353a206d696e7420746f20746865207a65726f2061646472657360008201527f7300000000000000000000000000000000000000000000000000000000000000602082015250565b6000612d0d602183611fec565b9150612d1882612cb1565b604082019050919050565b60006020820190508181036000830152612d3c81612d00565b9050919050565b7f455243313135353a2069647320616e6420616d6f756e7473206c656e6774682060008201527f6d69736d61746368000000000000000000000000000000000000000000000000602082015250565b6000612d9f602883611fec565b9150612daa82612d43565b604082019050919050565b60006020820190508181036000830152612dce81612d92565b9050919050565b6000612de082611e59565b9150612deb83611e59565b9250827fffffffffffffffffffffffffffffffffffffffffffffffffffffffffffffffff03821115612e2057612e1f612b15565b5b828201905092915050565b60006040820190508181036000830152612e4581856125be565b90508181036020830152612e5981846125be565b90509392505050565b7f455243313135353a207472616e7366657220746f20746865207a65726f20616460008201527f6472657373000000000000000000000000000000000000000000000000000000602082015250565b6000612ebe602583611fec565b9150612ec982612e62565b604082019050919050565b60006020820190508181036000830152612eed81612eb1565b9050919050565b7f455243313135353a20696e73756666696369656e742062616c616e636520666f60008201527f72207472616e7366657200000000000000000000000000000000000000000000602082015250565b6000612f50602a83611fec565b9150612f5b82612ef4565b604082019050919050565b60006020820190508181036000830152612f7f81612f43565b9050919050565b7f455243313135353a206275726e2066726f6d20746865207a65726f206164647260008201527f6573730000000000000000000000000000000000000000000000000000000000602082015250565b6000612fe2602383611fec565b9150612fed82612f86565b604082019050919050565b6000602082019050818103600083015261301181612fd5565b9050919050565b7f455243313135353a206275726e20616d6f756e7420657863656564732062616c60008201527f616e636500000000000000000000000000000000000000000000000000000000602082015250565b6000613074602483611fec565b915061307f82613018565b604082019050919050565b600060208201905081810360008301526130a381613067565b9050919050565b7f455243313135353a2073657474696e6720617070726f76616c2073746174757360008201527f20666f722073656c660000000000000000000000000000000000000000000000602082015250565b6000613106602983611fec565b9150613111826130aa565b604082019050919050565b60006020820190508181036000830152613135816130f9565b9050919050565b60006040820190506131516000830185611ecf565b61315e6020830184611ecf565b9392505050565b7f45524331353557697468536166655472616e736665723a20746869732061646460008201527f7265737320646f6573206e6f742068617665207065726d697373696f6e20746f60208201527f207472616e7366657220746f6b656e7300000000000000000000000000000000604082015250565b60006131e7605083611fec565b91506131f282613165565b606082019050919050565b60006020820190508181036000830152613216816131da565b9050919050565b600081519050919050565b600082825260208201905092915050565b60006132448261321d565b61324e8185613228565b935061325e818560208601611ffd565b61326781612030565b840191505092915050565b600060a0820190506132876000830188612735565b6132946020830187612735565b81810360408301526132a681866125be565b905081810360608301526132ba81856125be565b905081810360808301526132ce8184613239565b90509695505050505050565b6000815190506132e981611f25565b92915050565b60006020828403121561330557613304611df1565b5b6000613313848285016132da565b91505092915050565b60008160e01c9050919050565b600060033d11156133485760046000803e61334560005161331c565b90505b90565b600060443d101561335b576133de565b613363611de7565b60043d036004823e80513d602482011167ffffffffffffffff8211171561338b5750506133de565b808201805167ffffffffffffffff8111156133a957505050506133de565b80602083010160043d0385018111156133c65750505050506133de565b6133d5826020018501866120d0565b82955050505050505b90565b7f455243313135353a207472616e7366657220746f206e6f6e204552433131353560008201527f526563656976657220696d706c656d656e746572000000000000000000000000602082015250565b600061343d603483611fec565b9150613448826133e1565b604082019050919050565b6000602082019050818103600083015261346c81613430565b9050919050565b7f455243313135353a204552433131353552656365697665722072656a6563746560008201527f6420746f6b656e73000000000000000000000000000000000000000000000000602082015250565b60006134cf602883611fec565b91506134da82613473565b604082019050919050565b600060208201905081810360008301526134fe816134c2565b9050919050565b600060a08201905061351a6000830188612735565b6135276020830187612735565b6135346040830186611ecf565b6135416060830185611ecf565b81810360808301526135538184613239565b9050969550505050505056fea2646970667358221220a73a1738b1bcec49769d6c18efa16a026e2cd80b62b856e88b55e362b3e50a2e64736f6c634300080b003368747470733a2f2f6578616d706c652e63646e2f636f6d2f7b69647d2e6a736f6e",
  "immutableReferences": {},
  "source": "// SPDX-License-Identifier: MIT\npragma solidity ^0.8.0;\n\n//imports a specific Solidity contract from the Open Zeppelin Github repository; \n//check the latest version # and update it in the import statement's path as needed\n/* import \"https://github.com/OpenZeppelin/openzeppelin-contracts/blob/v3.3.0/contracts/token/ERC1155/ERC1155.sol\";\nimport \"https://github.com/OpenZeppelin/openzeppelin-contracts/blob/v3.3.0/contracts/access/Ownable.sol\"; */\nimport \"@openzeppelin/contracts/token/ERC1155/ERC1155.sol\";\nimport \"@openzeppelin/contracts/access/Ownable.sol\";\n\n\n/**\n* @author Forrest Colyer (AWS), inherits from Open Zeppelin contracts\n* @title A simple ERC1155 fungibility-agnostic token contract w/ access control and batch functions\n*/\ncontract NFTSample is ERC1155, Ownable {\n    \n    //maps addresses to boolean flags for allowance and revocation of allowance to receive tokens\n    //an address mapped to 'false' will be blocked from being sent tokens\n    mapping(address => bool) internal allowedAddresses;\n\n    \n    constructor () ERC1155(\"https://example.cdn/com/{id}.json\") \n    {\n    \n    }\n    \n    function mintBatch(address to, uint256[] memory ids, uint256[] memory amounts, bytes memory data) public onlyOwner {\n        super._mintBatch(to, ids, amounts, data);\n    }\n    \n    function burnBatch(address to, uint256[] memory ids, uint256[] memory amounts) public onlyOwner {\n        super._burnBatch(to, ids, amounts);\n    }\n    \n    \n    /**\n     * allowAddress: adds an Ethereum address to the allow list to transfer tokens\n     * @param from - the Ethereum address of the sender to add to the allow list\n     * @param allow - the boolean value denoting whether the to address is allowed to transfer/send tokens\n     * \n     * @dev provide the address for the sender and boolean 'false' to deny and 'true' to allow token transfers\n     */\n    function allowAddress(address from, bool allow) public onlyOwner {\n        allowedAddresses[from] = allow;\n    }\n    \n    \n    function _beforeTokenTransfer(address operator, address from, address to, uint256[] memory ids, uint256[] memory amounts, bytes memory data)\n        internal virtual override\n    {\n        super._beforeTokenTransfer(operator, from, to, ids, amounts, data);\n\n        if(msg.sender != owner()) { \n            require(_validSender(from), \"ERC155WithSafeTransfer: this address does not have permission to transfer tokens\");\n        }\n    }\n\n    /**\n     * _validSender: checks the \n     * @param from - the Ethereum address of the sender to check against the allow list\n     * \n     * @dev the allow list is only checked for 'true' or 'false'; transfers initiated by the contract owner are not checked\n     * \n     */\n    function _validSender(address from) private view returns (bool) {\n        //add logic for 'magic phrase' here to validate recipients?\n        return allowedAddresses[from];\n        \n    }\n}",
  "sourcePath": "/Users/matanzu/Projects/blockchain/nft-deployment-amazon-managed-blockchain/truffle/contracts/NFTSamples/NFTSample.sol",
  "compiler": {
    "name": "solc",
    "version": "0.8.11+commit.d7f03943.Emscripten.clang"
  },
  "schemaVersion": "3.4.4",
  "updatedAt": "2022-02-02T07:17:20.650Z",
  "devdoc": {
    "author": "Forrest Colyer (AWS), inherits from Open Zeppelin contracts",
    "kind": "dev",
    "methods": {
      "allowAddress(address,bool)": {
        "details": "provide the address for the sender and boolean 'false' to deny and 'true' to allow token transfers",
        "params": {
          "allow": "- the boolean value denoting whether the to address is allowed to transfer/send tokens ",
          "from": "- the Ethereum address of the sender to add to the allow list"
        }
      },
      "balanceOf(address,uint256)": {
        "details": "See {IERC1155-balanceOf}. Requirements: - `account` cannot be the zero address."
      },
      "balanceOfBatch(address[],uint256[])": {
        "details": "See {IERC1155-balanceOfBatch}. Requirements: - `accounts` and `ids` must have the same length."
      },
      "isApprovedForAll(address,address)": {
        "details": "See {IERC1155-isApprovedForAll}."
      },
      "owner()": {
        "details": "Returns the address of the current owner."
      },
      "renounceOwnership()": {
        "details": "Leaves the contract without owner. It will not be possible to call `onlyOwner` functions anymore. Can only be called by the current owner. NOTE: Renouncing ownership will leave the contract without an owner, thereby removing any functionality that is only available to the owner."
      },
      "safeBatchTransferFrom(address,address,uint256[],uint256[],bytes)": {
        "details": "See {IERC1155-safeBatchTransferFrom}."
      },
      "safeTransferFrom(address,address,uint256,uint256,bytes)": {
        "details": "See {IERC1155-safeTransferFrom}."
      },
      "setApprovalForAll(address,bool)": {
        "details": "See {IERC1155-setApprovalForAll}."
      },
      "supportsInterface(bytes4)": {
        "details": "See {IERC165-supportsInterface}."
      },
      "transferOwnership(address)": {
        "details": "Transfers ownership of the contract to a new account (`newOwner`). Can only be called by the current owner."
      },
      "uri(uint256)": {
        "details": "See {IERC1155MetadataURI-uri}. This implementation returns the same URI for *all* token types. It relies on the token type ID substitution mechanism https://eips.ethereum.org/EIPS/eip-1155#metadata[defined in the EIP]. Clients calling this function must replace the `\\{id\\}` substring with the actual token type ID."
      }
    },
    "title": "A simple ERC1155 fungibility-agnostic token contract w/ access control and batch functions",
    "version": 1
  },
  "userdoc": {
    "kind": "user",
    "methods": {
      "allowAddress(address,bool)": {
        "notice": "allowAddress: adds an Ethereum address to the allow list to transfer tokens"
      }
    },
    "version": 1
  }
}